:100000000C942A000C9447000C9447000C94470071
:100010000C9447000C9447000C9447000C94470044
:100020000C9447000C9447000C9452060C9407065D
:100030000C9447000C9447000C9447000C94470024
:100040000C9447000C9447000C9447000C94470014
:100050000C94470011241FBECFE5D8E0DEBFCDBF12
:1000600010E0A0E6B0E0E2E7FDE002C005900D92EE
:10007000A837B107D9F710E0A8E7B0E001C01D929A
:10008000A139B107E1F70E94A7060C94B7060C94BA
:100090000000DF93CF930F92CDB7DEB71982EAE36A
:1000A000F0E08FEF8083E7E3F0E088E08083E4E333
:1000B000F0E08FEF8083E1E3F0E0108289810F9020
:1000C000CF91DF910895DF93CF9300D00F92CDB7FA
:1000D000DEB78A836B8319828B81813031F08B810B
:1000E000882319F084E08983C7C08A81803218F0A0
:1000F00088E08983C1C08A81883060F58B8188233C
:10010000A9F4ABE3B0E0EBE3F0E08081482F8A8113
:10011000282F30E081E090E0022E02C0880F991F66
:100120000A94E2F7809584238C93A6C0ABE3B0E0F9
:10013000EBE3F0E08081482F8A81282F30E081E0D6
:1001400090E0022E02C0880F991F0A94E2F7842BD8
:100150008C9392C08A81803178F58A8188508A8315
:100160008B818823A9F4A8E3B0E0E8E3F0E0808184
:10017000482F8A81282F30E081E090E0022E02C0D3
:10018000880F991F0A94E2F7809584238C9374C09A
:10019000A8E3B0E0E8E3F0E08081482F8A81282FCF
:1001A00030E081E090E0022E02C0880F991F0A948F
:1001B000E2F7842B8C9360C08A81883178F58A813C
:1001C00080518A838B818823A9F4A5E3B0E0E5E31D
:1001D000F0E08081482F8A81282F30E081E090E094
:1001E000022E02C0880F991F0A94E2F7809584239B
:1001F0008C9342C0A5E3B0E0E5E3F0E08081482FB6
:100200008A81282F30E081E090E0022E02C0880F22
:10021000991F0A94E2F7842B8C932EC08A8188510F
:100220008A838B818823A9F4A2E3B0E0E2E3F0E0C3
:100230008081482F8A81282F30E081E090E0022ED3
:1002400002C0880F991F0A94E2F7809584238C934B
:1002500013C0A2E3B0E0E2E3F0E08081482F8A819E
:10026000282F30E081E090E0022E02C0880F991F15
:100270000A94E2F7842B8C9389810F900F900F9052
:10028000CF91DF910895DF93CF9300D000D0CDB709
:10029000DEB78A837C836B8319828A81803218F06F
:1002A00088E0898306C08B819C81009711F480E1EE
:1002B00089838A818830A0F4E9E3F0E08081282FE7
:1002C00030E08A81882F90E0A90102C055954795BA
:1002D0008A95E2F7CA018170EB81FC8180834AC074
:1002E0008A818031B8F48A8188508A83E6E3F0E01D
:1002F0008081282F30E08A81882F90E0A90102C0F8
:10030000559547958A95E2F7CA018170EB81FC818A
:10031000808330C08A818831B8F48A8180518A8391
:10032000E3E3F0E08081282F30E08A81882F90E09D
:10033000A90102C0559547958A95E2F7CA018170D7
:10034000EB81FC81808316C08A8188518A83E0E337
:10035000F0E08081282F30E08A81882F90E0A90189
:1003600002C0559547958A95E2F7CA018170EB81E5
:10037000FC81808389810F900F900F900F90CF9117
:10038000DF910895DF93CF9300D00F92CDB7DEB702
:100390008A836B8319828B81813031F08B81882332
:1003A00019F084E0898305C08A81803210F088E0EA
:1003B00089838A81883060F58B818823A9F4AAE338
:1003C000B0E0EAE3F0E08081482F8A81282F30E016
:1003D00081E090E0022E02C0880F991F0A94E2F794
:1003E000809584238C93A6C0AAE3B0E0EAE3F0E012
:1003F0008081482F8A81282F30E081E090E0022E12
:1004000002C0880F991F0A94E2F7842B8C9392C044
:100410008A81803178F58A8188508A838B8188230C
:10042000A9F4A7E3B0E0E7E3F0E08081482F8A81F8
:10043000282F30E081E090E0022E02C0880F991F43
:100440000A94E2F7809584238C9374C0A7E3B0E00C
:10045000E7E3F0E08081482F8A81282F30E081E0B7
:1004600090E0022E02C0880F991F0A94E2F7842BB5
:100470008C9360C08A81883178F58A8180518A8323
:100480008B818823A9F4A4E3B0E0E4E3F0E0808169
:10049000482F8A81282F30E081E090E0022E02C0B0
:1004A000880F991F0A94E2F7809584238C9342C0A9
:1004B000A4E3B0E0E4E3F0E08081482F8A81282FB4
:1004C00030E081E090E0022E02C0880F991F0A946C
:1004D000E2F7842B8C932EC08A8188518A838B818A
:1004E0008823A9F4A1E3B0E0E1E3F0E08081482FA4
:1004F0008A81282F30E081E090E0022E02C0880F30
:10050000991F0A94E2F7809584238C9313C0A1E38A
:10051000B0E0E1E3F0E08081482F8A81282F30E0CD
:1005200081E090E0022E02C0880F991F0A94E2F742
:10053000842B8C9389810F900F900F90CF91DF9136
:100540000895DF93CF9300D0CDB7DEB78A831982A9
:100550008A81803218F088E0898361C08A8188307E
:10056000A0F4ABE3B0E0EBE3F0E08081482F8A81B8
:10057000282F30E081E090E0022E02C0880F991F02
:100580000A94E2F784278C934AC08A818031B8F4B8
:100590008A8188508A83A8E3B0E0E8E3F0E08081B4
:1005A000482F8A81282F30E081E090E0022E02C09F
:1005B000880F991F0A94E2F784278C9330C08A81B0
:1005C0008831B8F48A8180518A83A5E3B0E0E5E3FD
:1005D000F0E08081482F8A81282F30E081E090E090
:1005E000022E02C0880F991F0A94E2F784278C9389
:1005F00016C08A8188518A83A2E3B0E0E2E3F0E08A
:100600008081482F8A81282F30E081E090E0022EFF
:1006100002C0880F991F0A94E2F784278C9389817E
:100620000F900F90CF91DF910895DF93CF930F92AA
:10063000CDB7DEB78983898161E00E9463000F90A6
:10064000CF91DF910895DF93CF9300D000D00F9228
:10065000CDB7DEB79D838C831A82198238C0898119
:10066000882F90E0FC01E05AFF4F808160E00E94FB
:10067000C2018981882F90E0FC01E05AFF4F808100
:100680000E9415038981882F90E0FC01E05AFF4FFA
:1006900080819E012D5F3F4FB9010E944301EC8193
:1006A000FD818081482F8B81282F30E08981882F20
:1006B00090E0B90102C0660F771F8A95E2F7CB017F
:1006C000842BEC81FD81808389818F5F898389817F
:1006D000883028F28A810F900F900F900F900F9022
:1006E000CF91DF910895DF93CF9300D00F92CDB7D4
:1006F000DEB78B831A82198233C08981882F90E0FC
:10070000FC01E05AFF4F808161E00E94C2018B81B1
:10071000282F30E08981882F90E0A90102C05595EB
:1007200047958A95E2F7CA0181709070882359F045
:100730008981882F90E0FC01E05AFF4F808161E0C1
:100740000E9463000AC08981882F90E0FC01E05A72
:10075000FF4F808160E00E94630089818F5F898301
:100760008981883050F28A810F900F900F90CF913D
:10077000DF910895DF93CF9300D000D00F92CDB7D3
:10078000DEB79D838C831A82198238C08981882FB5
:1007900090E0FC01E859FF4F808160E00E94C201B7
:1007A0008981882F90E0FC01E859FF4F80810E94E9
:1007B00015038981882F90E0FC01E859FF4F808163
:1007C0009E012D5F3F4FB9010E944301EC81FD81E5
:1007D0008081482F8B81282F30E08981882F90E0FD
:1007E000B90102C0660F771F8A95E2F7CB01842B0F
:1007F000EC81FD81808389818F5F89838981883045
:1008000028F28A810F900F900F900F900F90CF9148
:10081000DF910895DF93CF9300D00F92CDB7DEB76D
:100820008B831A82198233C08981882F90E0FC0162
:10083000E859FF4F808161E00E94C2018B81282F1F
:1008400030E08981882F90E0A90102C05595479535
:100850008A95E2F7CA0181709070882359F08981E6
:10086000882F90E0FC01E859FF4F808161E00E94F1
:1008700063000AC08981882F90E0FC01E859FF4F8E
:10088000808160E00E94630089818F5F8983898114
:10089000883050F28A810F900F900F90CF91DF91A6
:1008A0000895DF93CF9300D000D00F92CDB7DEB77D
:1008B0009D838C83EC81FD8110821A821B821982B8
:1008C00038C08981882F90E0FC01E059FF4F80817A
:1008D00060E00E94C2018981882F90E0FC01E0590C
:1008E000FF4F80810E9415038981882F90E0FC01D1
:1008F000E059FF4F80819E012D5F3F4FB9010E945B
:100900004301EC81FD818081482F8B81282F30E0CD
:100910008981882F90E0B90102C0660F771F8A9500
:10092000E2F7CB01842BEC81FD81808389818F5F8D
:1009300089838981883028F28A810F900F900F90E7
:100940000F900F90CF91DF910895DF93CF9300D058
:100950000F92CDB7DEB78B831A82198233C089819B
:10096000882F90E0FC01E059FF4F808161E00E94F8
:10097000C2018B81282F30E08981882F90E0A90166
:1009800002C0559547958A95E2F7CA01817090702B
:10099000882359F08981882F90E0FC01E059FF4FAE
:1009A000808161E00E9463000AC08981882F90E005
:1009B000FC01E059FF4F808160E00E946300898163
:1009C0008F5F89838981883050F28A810F900F90E0
:1009D0000F90CF91DF910895DF93CF9300D000D097
:1009E0000F92CDB7DEB78A836B8319828B818F3FDD
:1009F00011F48FEF89838A81282F30E03D832C8387
:100A00008C819D8181309105D1F02C813D812230F6
:100A100031052CF48C819D81009761F01EC02C81E2
:100A20003D812230310581F08C819D81833091059B
:100A300081F013C0EAE3F0E0898180830EC0E7E330
:100A4000F0E08981808309C0E4E3F0E0898180835C
:100A500004C0E1E3F0E0898180830F900F900F9054
:100A60000F900F90CF91DF910895DF93CF9300D037
:100A700000D0CDB7DEB789836A838981282F30E023
:100A80003C832B838B819C8181309105D1F02B811C
:100A90003C81223031052CF48B819C81009761F0E0
:100AA0001EC02B813C812230310581F08B819C81DD
:100AB0008330910581F013C0EBE3F0E08A818083FD
:100AC0000EC0E8E3F0E08A81808309C0E5E3F0E04E
:100AD0008A81808304C0E2E3F0E08A8180830F9002
:100AE0000F900F900F90CF91DF910895DF93CF93E8
:100AF000CDB7DEB7CF91DF910895DF93CF93CDB718
:100B0000DEB72E970FB6F894DEBF0FBECDBF6B8752
:100B10007C878D879E871A86198283E590E0998766
:100B2000888782E590E09F838E831B828CE590E02E
:100B30009D838C8381E08A8386E795E09093820091
:100B40008093810086E795E09093840080938300F2
:100B5000E885F98588E48083EC81FD811082A7E334
:100B6000B0E0E7E3F0E0808188608C93E885F98568
:100B700080818063E885F9858083E885F9858081B7
:100B80008160E885F985808378948A852E960FB6F2
:100B9000F894DEBF0FBECDBFCF91DF910895DF93F4
:100BA000CF9300D00F92CDB7DEB79B838A83198293
:100BB0008A819B81009711F480E189838A819B81DE
:100BC000909382008093810089810F900F900F9005
:100BD000CF91DF910895DF93CF9300D00F92CDB7DF
:100BE000DEB79B838A8319828A819B81009711F4E7
:100BF00080E189838A819B81909384008093830024
:100C000089810F900F900F90CF91DF9108951F92DF
:100C10000F920FB60F9211242F933F934F935F9330
:100C20006F937F938F939F93AF93BF93EF93FF93B4
:100C3000DF93CF93CDB7DEB7209178003091790064
:100C400080917C0090917D002817390778F01092F0
:100C5000790010927800E2E5F0E0809180008083D6
:100C6000E0918100F0918200099509C0809178009F
:100C70009091790001969093790080937800CF91BC
:100C8000DF91FF91EF91BF91AF919F918F917F91F4
:100C90006F915F914F913F912F910F900FBE0F90E9
:100CA0001F9018951F920F920FB60F9211242F9339
:100CB0003F934F935F936F937F938F939F93AF93E4
:100CC000BF93EF93FF93DF93CF93CDB7DEB7209120
:100CD0007A0030917B0080917E0090917F002817F0
:100CE000390750F0E0918300F0918400099510924B
:100CF0007B0010927A0009C080917A0090917B006D
:100D0000019690937B0080937A00CF91DF91FF91C1
:100D1000EF91BF91AF919F918F917F916F915F9173
:100D20004F913F912F910F900FBE0F901F901895EC
:100D3000DF93CF930F92CDB7DEB78983ECE5F0E078
:100D40008981808380E00F90CF91DF910895DF93B8
:100D5000CF93CDB7DEB70E94490060E472E48FE024
:100D600090E00E947D0580E00E949806FFCFF894F5
:020D7000FFCFB3
:100D7200000703121411131E000703121411131E8D
:080D82000A0B0C0D0E0F1011FD
:00000001FF
