:100000000C942A000C9447000C9447000C94470071
:100010000C9447000C9447000C9447000C94470044
:100020000C9447000C9447000C940E0C0C94C30BDA
:100030000C9447000C9447000C9447000C94470024
:100040000C9447000C9447000C9447000C94470014
:100050000C94470011241FBECFE5D8E0DEBFCDBF12
:1000600010E0A0E6B0E0EAE2FBE102C005900D92EC
:10007000A038B107D9F710E0A0E8B0E001C01D92A8
:10008000A939B107E1F70E94C90C0C94930D0C94A7
:100090000000EF92FF920F931F937B018C0120E0F1
:1000A00030E040E05FE40E94490388238CF0C801FF
:1000B000B70120E030E040E05FE40E94C1010E940F
:1000C000A9039B01AC01205030404040504806C07D
:1000D000C801B7010E94A9039B01AC01B901CA0183
:1000E0001F910F91FF90EF900895A0E0B0E0EBE733
:1000F000F0E00C945C0DDC012B01FA019C91923034
:1001000008F439C1EB018881823008F433C194309E
:1001100069F4843009F02FC111969C91119789815F
:10012000981709F428C1A0E6B0E025C1843009F48D
:1001300021C18230A9F4923009F01DC19A01AD01AC
:1001400088E0EA010990AE01E90109929E0181501F
:10015000C1F7E201898111969C918923818308C1AD
:10016000923009F407C112962D903C901397EB0141
:100170008A819B811496AD90BD90CD90DC901797AD
:10018000EC80FD800E811F819101281B390BB90184
:1001900037FF04C066277727621B730B6032710537
:1001A0000CF061C0121613066CF537014801062EDB
:1001B00004C096948794779467940A94D2F721E0C8
:1001C00030E040E050E004C0220F331F441F551FB1
:1001D0006A95D2F721503040404050402E213F21B7
:1001E00040235123211531054105510521F021E01E
:1001F00030E040E050E079018A01E628F72808293C
:1002000019293CC0232BD1F1260E371E350146019A
:10021000062E04C096948794779467940A94D2F734
:1002200021E030E040E050E004C0220F331F441FC3
:10023000551F6A95D2F721503040404050402A2146
:100240003B214C215D21211531054105510521F04E
:1002500021E030E040E050E059016A01A628B728CB
:10026000C828D9280BC0821593052CF01C01AA249C
:10027000BB24650103C0EE24FF24870111969C91E5
:10028000D20111968C91981709F445C0992339F041
:10029000A80197012A193B094C095D0906C0A6016E
:1002A00095012E193F09400B510B57FD08C01182D3
:1002B0003382228224833583468357831DC081E0A5
:1002C00081833382228288279927DC01821B930B4A
:1002D000A40BB50B84839583A683B7830DC0220F2F
:1002E000331F441F551F24833583468357838281E0
:1002F000938101979383828324813581468157813D
:10030000DA01C9010197A109B1098F5F9F4FAF4F72
:10031000BF4328F30BC0918333822282EA0CFB1C7B
:100320000C1D1D1DE482F5820683178383E0808304
:10033000248135814681578157FF1AC0C901AA27F8
:1003400097FDA095BA2F81709070A070B0705695EF
:10035000479537952795822B932BA42BB52B848318
:100360009583A683B7838281938101969383828349
:10037000DF0101C0D201CD01CDB7DEB7E2E10C94BF
:10038000780DA0E2B0E0E7ECF1E00C94680D698331
:100390007A838B839C832D833E834F835887E9E048
:1003A000EE2EF12CEC0EFD1ECE010196B7010E943F
:1003B000D2048E010F5E1F4FCE010596B8010E9438
:1003C000D2048A8991E089278A8BC701B801AE01DE
:1003D000475E5F4F0E9475000E94FD03A096E6E015
:1003E0000C94840DA0E2B0E0E8EFF1E00C94680D0D
:1003F00069837A838B839C832D833E834F835887C5
:10040000F9E0EF2EF12CEC0EFD1ECE010196B701A6
:100410000E94D2048E010F5E1F4FCE010596B801D7
:100420000E94D204C701B801AE01475E5F4F0E942F
:1004300075000E94FD03A096E6E00C94840DA0E2F6
:10044000B0E0E5E2F2E00C945C0D69837A838B8383
:100450009C832D833E834F835887CE010196BE0136
:10046000675F7F4F0E94D204CE010596BE016F5E8A
:100470007F4F0E94D2049985923088F0898982301A
:10048000C8F0943019F4823051F404C0843029F457
:10049000923081F480E690E0C6C0923049F420E0CA
:1004A0009A858A89981321E02A87CE010996BBC0D4
:1004B000823049F420E09A858A89981321E02A8BBA
:1004C000CE014196B0C02D843E844F8458886D88FB
:1004D0007E888F88988CEE24FF248701AA24BB2471
:1004E000650140E050E060E070E0E0E0F0E0C10174
:1004F00081709070892BE9F0E60CF71C081D191D1E
:100500009A01AB012A0D3B1D4C1D5D1D80E090E062
:10051000A0E0B0E0E614F7040805190520F481E036
:1005200090E0A0E0B0E0BA01A901480F591F6A1F8E
:100530007B1FAA0CBB1CCC1CDD1C97FE08C081E0F5
:1005400090E0A0E0B0E0A82AB92ACA2ADB2A3196B6
:10055000E032F10549F0660C771C881C991C569412
:10056000479437942794C3CFFA85EA892B893C892D
:100570008B859C85280F391F2E5F3F4F17C0CA01FE
:1005800081709070892B61F016950795F794E79428
:1005900080E090E0A0E0B0E8E82AF92A0A2B1B2BC3
:1005A00076956795579547952F5F3F4F77FDE7CF36
:1005B0000CC0440F551F661F771F17FD4160EE0CDE
:1005C000FF1C001F111F21503040403090E05907A0
:1005D00090E0690790E4790760F32B8F3C8FDB0193
:1005E000CA018F779070A070B07080349105A1051A
:1005F000B10561F447FD0AC0E114F10401051105DC
:1006000029F0405C5F4F6F4F7F4F40781A8EFE1786
:1006100011F081E08A8F4D8F5E8F6F8F78A383E01A
:10062000898FCE0149960E94FD03A096E2E10C94C9
:10063000780DA8E1B0E0EFE1F3E00C94680D698378
:100640007A838B839C832D833E834F83588789E0F5
:10065000E82EF12CEC0EFD1ECE010196B7010E9492
:10066000D2048E010F5E1F4FCE010596B8010E9485
:10067000D2048985823040F08989823028F0C70110
:10068000B8010E944A0501C08FEF6896E6E00C941D
:10069000840DA8E1B0E0EFE4F3E00C94680D698309
:1006A0007A838B839C832D833E834F83588789E095
:1006B000E82EF12CEC0EFD1ECE010196B7010E9432
:1006C000D2048E010F5E1F4FCE010596B8010E9425
:1006D000D2048985823040F08989823028F0C701B0
:1006E000B8010E944A0501C08FEF6896E6E00C94BD
:1006F000840DA8E1B0E0EFE7F3E00C94680D6983A6
:100700007A838B839C832D833E834F83588789E034
:10071000E82EF12CEC0EFD1ECE010196B7010E94D1
:10072000D2048E010F5E1F4FCE010596B8010E94C4
:10073000D2048985823040F08989823028F0C7014F
:10074000B8010E944A0501C081E06896E6E00C9479
:10075000840DACE0B0E0EFEAF3E00C946C0D69833B
:100760007A838B839C83CE010196BE016B5F7F4FA2
:100770000E94D2048D81823061F1823050F1843048
:1007800021F48E81882351F12EC02F81388537FDC9
:1007900020C06E812F3131051CF06623F9F023C093
:1007A0008EE190E0821B930B29853A854B855C8511
:1007B00004C056954795379527958A95D2F76623B5
:1007C000B1F050954095309521953F4F4F4F5F4F79
:1007D0000EC020E030E040E050E009C02FEF3FEFD6
:1007E0004FEF5FE704C020E030E040E050E8B9019F
:1007F000CA012C96E2E00C94880DDF92EF92FF92F2
:100800000F931F93FC01E480F58006811781D1804E
:100810008081823048F480E090E0A0E1B0E0E82AF6
:10082000F92A0A2B1B2BA5C0843009F49FC0823003
:1008300021F4EE24FF24870105C0E114F104010531
:10084000110519F4E0E0F0E096C0628173819FEF3A
:10085000623879070CF05BC022E83FEF261B370BAC
:100860002A3131052CF020E030E040E050E02AC091
:10087000B801A701022E04C0769567955795479554
:100880000A94D2F781E090E0A0E0B0E004C0880FC5
:10089000991FAA1FBB1F2A95D2F70197A109B10979
:1008A0008E219F21A023B1230097A105B10521F03E
:1008B00081E090E0A0E0B0E09A01AB01282B392B59
:1008C0004A2B5B2BDA01C9018F779070A070B07052
:1008D00080349105A105B10539F427FF09C0205CDA
:1008E0003F4F4F4F5F4F04C0215C3F4F4F4F5F4F13
:1008F000E0E0F0E02030A0E03A07A0E04A07A0E402
:100900005A0710F0E1E0F0E079018A0127C0603871
:10091000710564F5FB01E158FF4FD801C7018F77DE
:100920009070A070B07080349105A105B10539F4C4
:10093000E7FE0DC080E490E0A0E0B0E004C08FE3EB
:1009400090E0A0E0B0E0E80EF91E0A1F1B1F17FFA1
:1009500005C016950795F794E794319687E01695AC
:100960000795F794E7948A95D1F705C0EE24FF2404
:100970008701EFEFF0E06E2F679566276795902F60
:100980009F77D794DD24D7948E2F8695492F462BB9
:10099000582F5D29B701CA011F910F91FF90EF9069
:1009A000DF900895FC01DB01408151812281622F9B
:1009B0006F7770E0221F2227221F9381892F880FD3
:1009C000822B282F30E0991F9927991F11969C930D
:1009D000119721153105A9F54115510561057105DD
:1009E00011F482E037C082E89FEF13969C938E93B8
:1009F00012979A01AB0167E0220F331F441F551F66
:100A00006A95D1F783E08C930DC0220F331F441FEA
:100A1000551F12968D919C911397019713969C9355
:100A20008E931297203080E0380780E0480780E4FA
:100A3000580758F314962D933D934D935C93179755
:100A400008952F3F310579F4411551056105710570
:100A500019F484E08C93089564FF03C081E08C93C3
:100A600012C01C9210C02F57304013963C932E9307
:100A7000129783E08C9387E0440F551F661F771F02
:100A80008A95D1F7706414964D935D936D937C9322
:100A9000179708951F93DC01FB019C91923008F495
:100AA00047C08081823008F443C0943051F41196DD
:100AB0001C91843099F58181682F70E0611B710968
:100AC0003FC0843021F0923031F48230B9F181811D
:100AD000882389F12DC011961C9111978230F1F075
:100AE00081811817D9F412962D913C911397828128
:100AF00093818217930794F028173907BCF0149656
:100B00008D919D910D90BC91A02D248135814681C0
:100B10005781281739074A075B0718F4112341F05A
:100B20000AC082179307A407B50740F4112319F0F0
:100B300061E070E005C06FEF7FEF02C060E070E041
:100B4000CB011F910895DF93CF93CDB7DEB7A6E217
:100B5000B0E0E6E2F0E0808180688C93A7E2B0E04C
:100B6000E7E2F0E0808180648C93A7E2B0E0E7E206
:100B7000F0E080818F778C93A6E2B0E0E6E2F0E0CF
:100B8000808187608C93A7E2B0E0E7E2F0E08081AB
:100B900080628C93CF91DF910895DF93CF930F9272
:100BA000CDB7DEB78983A7E2B0E0E7E2F0E080816D
:100BB000807E8C93A7E2B0E0E7E2F0E08081982F9E
:100BC00089818770892B8C93A6E2B0E0E6E2F0E0A1
:100BD000808180648C93E6E2F0E0808182958F7062
:100BE000882F90E0817090700097A9F3A6E2B0E0A2
:100BF000E6E2F0E0808180618C93E4E2F0E08081C5
:100C000091810F90CF91DF910895DF93CF930F9251
:100C1000CDB7DEB71982EAE3F0E08FEF8083E7E338
:100C2000F0E01082E4E3F0E08FEF8083E1E3F0E0B6
:100C3000108289810F90CF91DF910895DF93CF9338
:100C400000D00F92CDB7DEB78A836B8319828B8178
:100C5000813031F08B81882319F084E08983C7C00B
:100C60008A81803218F088E08983C1C08A81883007
:100C700060F58B818823A9F4ABE3B0E0EBE3F0E00F
:100C80008081482F8A81282F30E081E090E0022E79
:100C900002C0880F991F0A94E2F7809584238C93F1
:100CA000A6C0ABE3B0E0EBE3F0E08081482F8A819F
:100CB000282F30E081E090E0022E02C0880F991FBB
:100CC0000A94E2F7842B8C9392C08A81803178F564
:100CD0008A8188508A838B818823A9F4A8E3B0E0B5
:100CE000E8E3F0E08081482F8A81282F30E081E01E
:100CF00090E0022E02C0880F991F0A94E2F78095B7
:100D000084238C9374C0A8E3B0E0E8E3F0E0808132
:100D1000482F8A81282F30E081E090E0022E02C027
:100D2000880F991F0A94E2F7842B8C9360C08A8104
:100D3000883178F58A8180518A838B818823A9F450
:100D4000A5E3B0E0E5E3F0E08081482F8A81282F19
:100D500030E081E090E0022E02C0880F991F0A94D3
:100D6000E2F7809584238C9342C0A5E3B0E0E5E3ED
:100D7000F0E08081482F8A81282F30E081E090E0E8
:100D8000022E02C0880F991F0A94E2F7842B8C93DD
:100D90002EC08A8188518A838B818823A9F4A2E39B
:100DA000B0E0E2E3F0E08081482F8A81282F30E034
:100DB00081E090E0022E02C0880F991F0A94E2F7AA
:100DC000809584238C9313C0A2E3B0E0E2E3F0E0CB
:100DD0008081482F8A81282F30E081E090E0022E28
:100DE00002C0880F991F0A94E2F7842B8C938981A3
:100DF0000F900F900F90CF91DF910895DF93CF93D5
:100E000000D000D0CDB7DEB78A837C836B83198294
:100E10008A81803218F088E0898306C08B819C81AA
:100E2000009711F480E189838A818830A0F4E9E396
:100E3000F0E08081282F30E08A81882F90E0A9019E
:100E400002C0559547958A95E2F7CA018170EB81FA
:100E5000FC8180834AC08A818031B8F48A818850BD
:100E60008A83E6E3F0E08081282F30E08A81882FB2
:100E700090E0A90102C0559547958A95E2F7CA010D
:100E80008170EB81FC81808330C08A818831B8F425
:100E90008A8180518A83E3E3F0E08081282F30E06B
:100EA0008A81882F90E0A90102C0559547958A95BF
:100EB000E2F7CA018170EB81FC81808316C08A81D0
:100EC00088518A83E0E3F0E08081282F30E08A8136
:100ED000882F90E0A90102C0559547958A95E2F7C1
:100EE000CA018170EB81FC81808389810F900F9012
:100EF0000F900F90CF91DF910895DF93CF9300D0A3
:100F00000F92CDB7DEB78A836B8319828B818130D4
:100F100031F08B81882319F084E0898305C08A81B0
:100F2000803210F088E089838A81883060F58B8177
:100F30008823A9F4AAE3B0E0EAE3F0E08081482F37
:100F40008A81282F30E081E090E0022E02C0880FD5
:100F5000991F0A94E2F7809584238C93A6C0AAE394
:100F6000B0E0EAE3F0E08081482F8A81282F30E06A
:100F700081E090E0022E02C0880F991F0A94E2F7E8
:100F8000842B8C9392C08A81803178F58A81885035
:100F90008A838B818823A9F4A7E3B0E0E7E3F0E03C
:100FA0008081482F8A81282F30E081E090E0022E56
:100FB00002C0880F991F0A94E2F7809584238C93CE
:100FC00074C0A7E3B0E0E7E3F0E08081482F8A81B6
:100FD000282F30E081E090E0022E02C0880F991F98
:100FE0000A94E2F7842B8C9360C08A81883178F56B
:100FF0008A8180518A838B818823A9F4A4E3B0E09D
:10100000E4E3F0E08081482F8A81282F30E081E0FE
:1010100090E0022E02C0880F991F0A94E2F7809593
:1010200084238C9342C0A4E3B0E0E4E3F0E0808149
:10103000482F8A81282F30E081E090E0022E02C004
:10104000880F991F0A94E2F7842B8C932EC08A8113
:1010500088518A838B818823A9F4A1E3B0E0E1E37E
:10106000F0E08081482F8A81282F30E081E090E0F5
:10107000022E02C0880F991F0A94E2F780958423FC
:101080008C9313C0A1E3B0E0E1E3F0E08081482F4E
:101090008A81282F30E081E090E0022E02C0880F84
:1010A000991F0A94E2F7842B8C9389810F900F90FB
:1010B0000F90CF91DF910895DF93CF9300D0CDB7FC
:1010C000DEB78A8319828A81803218F088E08983AA
:1010D00061C08A818830A0F4ABE3B0E0EBE3F0E0DC
:1010E0008081482F8A81282F30E081E090E0022E15
:1010F00002C0880F991F0A94E2F784278C934AC094
:101100008A818031B8F48A8188508A83A8E3B0E06C
:10111000E8E3F0E08081482F8A81282F30E081E0E9
:1011200090E0022E02C0880F991F0A94E2F78427EC
:101130008C9330C08A818831B8F48A8180518A8347
:10114000A5E3B0E0E5E3F0E08081482F8A81282F15
:1011500030E081E090E0022E02C0880F991F0A94CF
:10116000E2F784278C9316C08A8188518A83A2E390
:10117000B0E0E2E3F0E08081482F8A81282F30E060
:1011800081E090E0022E02C0880F991F0A94E2F7D6
:1011900084278C9389810F900F90CF91DF910895D0
:1011A000DF93CF930F92CDB7DEB78983898161E05A
:1011B0000E941E060F90CF91DF910895DF93CF9389
:1011C00000D000D00F92CDB7DEB79D838C831A82FA
:1011D000198238C08981882F90E0FC01E859FF4FBF
:1011E000808160E00E947D078981882F90E0FC016A
:1011F000E859FF4F80810E94D0088981882F90E0B4
:10120000FC01E859FF4F80819E012D5F3F4FB901DE
:101210000E94FE06EC81FD818081482F8B81282F62
:1012200030E08981882F90E0B90102C0660F771FF6
:101230008A95E2F7CB01842BEC81FD818083898143
:101240008F5F89838981883028F28A810F900F907F
:101250000F900F900F90CF91DF910895DF93CF9370
:1012600000D00F92CDB7DEB78B831A82198233C0BC
:101270008981882F90E0FC01E859FF4F808161E06F
:101280000E947D078B81282F30E08981882F90E094
:10129000A90102C0559547958A95E2F7CA01817068
:1012A0009070882359F08981882F90E0FC01E859DB
:1012B000FF4F808161E00E941E060AC08981882F4D
:1012C00090E0FC01E859FF4F808160E00E941E061B
:1012D00089818F5F89838981883050F28A810F905C
:1012E0000F900F90CF91DF910895DF93CF9300D0AF
:1012F00000D00F92CDB7DEB79D838C831A821982FE
:1013000038C08981882F90E0FC01E059FF4F80812F
:1013100060E00E947D078981882F90E0FC01E05900
:10132000FF4F80810E94D0088981882F90E0FC01C6
:10133000E059FF4F80819E012D5F3F4FB9010E9410
:10134000FE06EC81FD818081482F8B81282F30E0C3
:101350008981882F90E0B90102C0660F771F8A95B6
:10136000E2F7CB01842BEC81FD81808389818F5F43
:1013700089838981883028F28A810F900F900F909D
:101380000F900F90CF91DF910895DF93CF9300D00E
:101390000F92CDB7DEB78B831A82198233C0898151
:1013A000882F90E0FC01E059FF4F808161E00E94AE
:1013B0007D078B81282F30E08981882F90E0A9015B
:1013C00002C0559547958A95E2F7CA0181709070E1
:1013D000882359F08981882F90E0FC01E059FF4F64
:1013E000808161E00E941E060AC08981882F90E0FA
:1013F000FC01E059FF4F808160E00E941E06898158
:101400008F5F89838981883050F28A810F900F9095
:101410000F90CF91DF910895DF93CF9300D000D04C
:101420000F92CDB7DEB79D838C83EC81FD81108256
:101430001A821B82198238C08981882F90E0FC01B2
:10144000E858FF4F808160E00E947D078981882FE6
:1014500090E0FC01E858FF4F80810E94D00889810C
:10146000882F90E0FC01E858FF4F80819E012D5F9E
:101470003F4FB9010E94FE06EC81FD818081482F1B
:101480008B81282F30E08981882F90E0B90102C03C
:10149000660F771F8A95E2F7CB01842BEC81FD81E3
:1014A000808389818F5F89838981883028F28A814E
:1014B0000F900F900F900F900F90CF91DF910895A4
:1014C000DF93CF9300D00F92CDB7DEB78B831A8214
:1014D000198233C08981882F90E0FC01E858FF4FC2
:1014E000808161E00E947D078B81282F30E0898117
:1014F000882F90E0A90102C0559547958A95E2F79B
:10150000CA0181709070882359F08981882F90E0FA
:10151000FC01E858FF4F808161E00E941E060AC06E
:101520008981882F90E0FC01E858FF4F808160E0BE
:101530000E941E0689818F5F89838981883050F2DD
:101540008A810F900F900F90CF91DF910895DF93D4
:10155000CF9300D000D00F92CDB7DEB78A836B83D4
:1015600019828B818F3F11F48FEF89838A81282F15
:1015700030E03D832C838C819D8181309105D1F0B9
:101580002C813D81223031052CF48C819D81009786
:1015900061F01EC02C813D812230310581F08C81AB
:1015A0009D818330910581F013C0EAE3F0E08981E9
:1015B00080830EC0E7E3F0E08981808309C0E4E323
:1015C000F0E08981808304C0E1E3F0E089818083D9
:1015D0000F900F900F900F900F90CF91DF91089583
:1015E000DF93CF9300D000D0CDB7DEB789836A8375
:1015F0008981282F30E03C832B838B819C81813033
:101600009105D1F02B813C81223031052CF48B8166
:101610009C81009761F01EC02B813C8122303105F6
:1016200081F08B819C818330910581F013C0EBE3C5
:10163000F0E08A8180830EC0E8E3F0E08A81808355
:1016400009C0E5E3F0E08A81808304C0E2E3F0E0D2
:101650008A8180830F900F900F900F90CF91DF9130
:101660000895DF93CF93CDB7DEB7CF91DF91089583
:10167000DF93CF93CDB7DEB72E970FB6F894DEBFCA
:101680000FBECDBF6B877C878D879E871A86198298
:1016900083E590E09987888782E590E09F838E8339
:1016A0001B828CE590E09D838C8381E08A8381E3BB
:1016B0009BE090938A008093890081E39BE0909364
:1016C0008C0080938B00E885F98588E48083EC8129
:1016D000FD8184E68083A7E3B0E0E7E3F0E080816A
:1016E00088608C93E885F98580818062E885F9853A
:1016F0008083E885F98580818560E885F985808328
:1017000078948A852E960FB6F894DEBF0FBECDBFB3
:10171000CF91DF910895DF93CF9300D00F92CDB793
:10172000DEB79B838A8319828A819B81009711F49B
:1017300080E189838A819B8190938A0080938900CC
:1017400089810F900F900F90CF91DF910895DF93D3
:10175000CF9300D00F92CDB7DEB79B838A831982D7
:101760008A819B81009711F480E189838A819B8122
:1017700090938C0080938B0089810F900F900F9035
:10178000CF91DF9108951F920F920FB60F921124FF
:101790002F933F934F935F936F937F938F939F9379
:1017A000AF93BF93EF93FF93DF93CF93CDB7DEB7A4
:1017B000209180003091810080918400909185007B
:1017C0002817390778F01092810010928000E2E526
:1017D000F0E0809188008083E0918900F0918A0098
:1017E000099509C0809180009091810001969093A5
:1017F000810080938000CF91DF91FF91EF91BF91A5
:10180000AF919F918F917F916F915F914F913F9198
:101810002F910F900FBE0F901F9018951F920F924F
:101820000FB60F9211242F933F934F935F936F93B3
:101830007F938F939F93AF93BF93EF93FF93DF9328
:10184000CF93CDB7DEB72091820030918300809195
:101850008600909187002817390750F0E0918B009F
:10186000F0918C000995109283001092820009C0BB
:1018700080918200909183000196909383008093E1
:101880008200CF91DF91FF91EF91BF91AF919F9136
:101890008F917F916F915F914F913F912F910F9019
:1018A0000FBE0F901F901895DF93CF930F92CDB777
:1018B000DEB78983ECE5F0E08981808380E00F90DA
:1018C000CF91DF910895DF93CF930F92CDB7DEB71D
:1018D000AAE2B0E0EAE2F0E0808180618C93AAE2C3
:1018E000B0E0EAE2F0E0808188608C93AAE2B0E0A8
:1018F000EAE2F0E080818B7F8C9380E889838981A4
:101900008F7B89838981877F898389818F7E898382
:1019100089818F7D898389818460898389818260BF
:101920008983E0E4F0E089818083E0E4F0E01082E4
:10193000E9E2F0E083E380830F90CF91DF91089597
:10194000DF93CF930F92CDB7DEB78983EBE2F0E060
:101950008081829586958770882F90E08170907045
:101960000097A1F3ECE2F0E0898180830F90CF91A2
:10197000DF910895DF93CF93CDB7DEB7EBE2F0E0D0
:1019800080818823DCF7ECE2F0E08081CF91DF9169
:101990000895DF93CF93CDB7DEB72F970FB6F894A6
:1019A000DEBF0FBECDBF0E94630C0E94A30560E4A2
:1019B00072E48FE090E00E94380B80E00E94CD0539
:1019C000892F99278F8784E40E94A00C80E090E003
:1019D000AAE7B4E48B879C87AD87BE876B857C853F
:1019E0008D859E8520E030E04AEF54E40E941F027E
:1019F000DC01CB018F839887A987BA876F817885AF
:101A000089859A8520E030E040E85FE30E94790311
:101A100088232CF481E090E09E838D833FC06F810A
:101A2000788589859A8520E03FEF4FE757E40E944B
:101A3000190318164CF56B857C858D859E8520E0F5
:101A400030E040E251E40E941F02DC01CB01BC0106
:101A5000CD010E944900DC01CB019E838D830FC024
:101A600088EC90E09C838B838B819C810197F1F7BC
:101A70009C838B838D819E8101979E838D838D8135
:101A80009E81009769F714C06F81788589859A8552
:101A90000E944900DC01CB019E838D838D819E8154
:101AA0009A83898389819A810197F1F79A8389833F
:101AB0008F850E94540C81CF2F923F924F925F925C
:101AC0006F927F928F929F92AF92BF92CF92DF924E
:101AD000EF92FF920F931F93CF93DF93CDB7DEB7B3
:101AE000CA1BDB0B0FB6F894DEBF0FBECDBF099447
:101AF0002A88398848885F846E847D848C849B849E
:101B0000AA84B984C884DF80EE80FD800C811B81AB
:101B1000AA81B981CE0FD11D0FB6F894DEBF0FBEDA
:0A1B2000CDBFED010895F894FFCF4A
:101B2A00000000000000000008090A0B0C0D0E0F4F
:101B3A00000703121411131E0A0B0C0D0E0F1011BD
:00000001FF
