:100000000C942A000C9447000C9447000C94470071
:100010000C9447000C9447000C9447000C94470044
:100020000C9447000C9447000C9447000C94470034
:100030000C9447000C9447000C9447000C94470024
:100040000C9447000C9447000C9447000C94470014
:100050000C94470011241FBECFE5D8E0DEBFCDBF12
:1000600010E0A0E6B0E0ECE3F9E202C005900D92EA
:10007000A038B107D9F710E0A0E8B0E001C01D92A8
:10008000A639B107E1F70E94E0130C949C140C947C
:100090000000EF92FF920F931F937B018C0120E0F1
:1000A00030E040E05FE40E94F50388238CF0C80153
:1000B000B70120E030E040E05FE40E94C1010E940F
:1000C00055049B01AC01205030404040504806C0D0
:1000D000C801B7010E9455049B01AC01B901CA01D6
:1000E0001F910F91FF90EF900895A0E0B0E0EBE733
:1000F000F0E00C946514DC012B01FA019C91923024
:1001000008F439C1EB018881823008F433C194309E
:1001100069F4843009F02FC111969C91119789815F
:10012000981709F428C1A0E6B0E025C1843009F48D
:1001300021C18230A9F4923009F01DC19A01AD01AC
:1001400088E0EA010990AE01E90109929E0181501F
:10015000C1F7E201898111969C918923818308C1AD
:10016000923009F407C112962D903C901397EB0141
:100170008A819B811496AD90BD90CD90DC901797AD
:10018000EC80FD800E811F819101281B390BB90184
:1001900037FF04C066277727621B730B6032710537
:1001A0000CF061C0121613066CF537014801062EDB
:1001B00004C096948794779467940A94D2F721E0C8
:1001C00030E040E050E004C0220F331F441F551FB1
:1001D0006A95D2F721503040404050402E213F21B7
:1001E00040235123211531054105510521F021E01E
:1001F00030E040E050E079018A01E628F72808293C
:1002000019293CC0232BD1F1260E371E350146019A
:10021000062E04C096948794779467940A94D2F734
:1002200021E030E040E050E004C0220F331F441FC3
:10023000551F6A95D2F721503040404050402A2146
:100240003B214C215D21211531054105510521F04E
:1002500021E030E040E050E059016A01A628B728CB
:10026000C828D9280BC0821593052CF01C01AA249C
:10027000BB24650103C0EE24FF24870111969C91E5
:10028000D20111968C91981709F445C0992339F041
:10029000A80197012A193B094C095D0906C0A6016E
:1002A00095012E193F09400B510B57FD08C01182D3
:1002B0003382228224833583468357831DC081E0A5
:1002C00081833382228288279927DC01821B930B4A
:1002D000A40BB50B84839583A683B7830DC0220F2F
:1002E000331F441F551F24833583468357838281E0
:1002F000938101979383828324813581468157813D
:10030000DA01C9010197A109B1098F5F9F4FAF4F72
:10031000BF4328F30BC0918333822282EA0CFB1C7B
:100320000C1D1D1DE482F5820683178383E0808304
:10033000248135814681578157FF1AC0C901AA27F8
:1003400097FDA095BA2F81709070A070B0705695EF
:10035000479537952795822B932BA42BB52B848318
:100360009583A683B7838281938101969383828349
:10037000DF0101C0D201CD01CDB7DEB7E2E10C94BF
:100380008114A0E2B0E0E7ECF1E00C947114698311
:100390007A838B839C832D833E834F835887E9E048
:1003A000EE2EF12CEC0EFD1ECE010196B7010E943F
:1003B0007E058E010F5E1F4FCE010596B8010E948B
:1003C0007E058A8991E089278A8BC701B801AE0131
:1003D000475E5F4F0E9475000E94A904A096E6E068
:1003E0000C948D14A0E2B0E0E8EFF1E00C947114ED
:1003F00069837A838B839C832D833E834F835887C5
:10040000F9E0EF2EF12CEC0EFD1ECE010196B701A6
:100410000E947E058E010F5E1F4FCE010596B8012A
:100420000E947E05C701B801AE01475E5F4F0E9482
:1004300075000E94A904A096E6E00C948D14A0E239
:10044000B0E0E5E2F2E00C94651469837A838B8373
:100450009C832D833E834F835887CE010196BE0136
:10046000675F7F4F0E947E05CE010596BE016F5EDD
:100470007F4F0E947E059985923088F0898982306D
:10048000C8F0943019F4823051F404C0843029F457
:10049000923081F480E690E0C6C0923049F420E0CA
:1004A0009A858A89981321E02A87CE010996BBC0D4
:1004B000823049F420E09A858A89981321E02A8BBA
:1004C000CE014196B0C02D843E844F8458886D88FB
:1004D0007E888F88988CEE24FF248701AA24BB2471
:1004E000650140E050E060E070E0E0E0F0E0C10174
:1004F00081709070892BE9F0E60CF71C081D191D1E
:100500009A01AB012A0D3B1D4C1D5D1D80E090E062
:10051000A0E0B0E0E614F7040805190520F481E036
:1005200090E0A0E0B0E0BA01A901480F591F6A1F8E
:100530007B1FAA0CBB1CCC1CDD1C97FE08C081E0F5
:1005400090E0A0E0B0E0A82AB92ACA2ADB2A3196B6
:10055000E032F10549F0660C771C881C991C569412
:10056000479437942794C3CFFA85EA892B893C892D
:100570008B859C85280F391F2E5F3F4F17C0CA01FE
:1005800081709070892B61F016950795F794E79428
:1005900080E090E0A0E0B0E8E82AF92A0A2B1B2BC3
:1005A00076956795579547952F5F3F4F77FDE7CF36
:1005B0000CC0440F551F661F771F17FD4160EE0CDE
:1005C000FF1C001F111F21503040403090E05907A0
:1005D00090E0690790E4790760F32B8F3C8FDB0193
:1005E000CA018F779070A070B07080349105A1051A
:1005F000B10561F447FD0AC0E114F10401051105DC
:1006000029F0405C5F4F6F4F7F4F40781A8EFE1786
:1006100011F081E08A8F4D8F5E8F6F8F78A383E01A
:10062000898FCE0149960E94A904A096E2E10C941C
:100630008114A8E1B0E0EFE1F3E00C946D1469835C
:100640007A838B839C832D833E834F835887B9E0C5
:10065000EB2EF12CEC0EFD1ECE010196B7010E948F
:100660007E058E010F5E1F4FCE010596B8010E94D8
:100670007E052985223008F47EC03989323010F495
:10068000B8017CC08A859A8989278A87243011F02D
:10069000223031F4231709F06EC060E670E06EC0BE
:1006A000343039F41D861E861F86188A1C861B86E8
:1006B00004C0323021F484E08987B7015FC02B8504
:1006C0003C858B899C89281B390B3C872B87ED84C3
:1006D000FE840F851889AD88BE88CF88D88CEA142F
:1006E000FB040C051D0540F4EE0CFF1C001F111F40
:1006F000215030403C872B8720E030E040E050E044
:1007000080E090E0A0E0B0E460E070E0EA14FB0478
:100710000C051D0540F0282B392B4A2B5B2BEA18C2
:10072000FB080C091D09B695A79597958795EE0CC2
:10073000FF1C001F111F6F5F7F4F6F31710531F775
:10074000DA01C9018F779070A070B0708034910584
:10075000A105B10561F427FD0AC0E114F10401050A
:10076000110529F0205C3F4F4F4F5F4F20782D87B8
:100770003E874F87588BBE01675F7F4FCB010E943A
:10078000A9046896EAE00C948914A8E1B0E0EBECC7
:10079000F3E00C94711469837A838B839C832D839B
:1007A0003E834F83588789E0E82EF12CEC0EFD1E26
:1007B000CE010196B7010E947E058E010F5E1F4F8C
:1007C000CE010596B8010E947E058985823040F0F1
:1007D0008989823028F0C701B8010E94F60501C05E
:1007E0008FEF6896E6E00C948D14A8E1B0E0EBEF93
:1007F000F3E00C94711469837A838B839C832D833B
:100800003E834F83588789E0E82EF12CEC0EFD1EC5
:10081000CE010196B7010E947E058E010F5E1F4F2B
:10082000CE010596B8010E947E058985823040F090
:100830008989823028F0C701B8010E94F60501C0FD
:100840008FEF6896E6E00C948D14A8E1B0E0EBE23F
:10085000F4E00C94711469837A838B839C832D83D9
:100860003E834F83588789E0E82EF12CEC0EFD1E65
:10087000CE010196B7010E947E058E010F5E1F4FCB
:10088000CE010596B8010E947E058985823040F030
:100890008989823028F0C701B8010E94F60501C09D
:1008A00081E06896E6E00C948D14ACE0B0E0EBE5F6
:1008B000F4E00C94751469837A838B839C83CE0156
:1008C0000196BE016B5F7F4F0E947E058D81823055
:1008D00061F1823050F1843021F48E81882351F10E
:1008E0002EC02F81388537FD20C06E812F31310514
:1008F0001CF06623F9F023C08EE190E0821B930B7D
:1009000029853A854B855C8504C056954795379572
:1009100027958A95D2F76623B1F05095409530958A
:1009200021953F4F4F4F5F4F0EC020E030E040E039
:1009300050E009C02FEF3FEF4FEF5FE704C020E02A
:1009400030E040E050E8B901CA012C96E2E00C9496
:100950009114DF92EF92FF920F931F93FC01E480BA
:10096000F58006811781D1808081823048F480E053
:1009700090E0A0E1B0E0E82AF92A0A2B1B2BA5C0E1
:10098000843009F49FC0823021F4EE24FF248701D3
:1009900005C0E114F1040105110519F4E0E0F0E0EF
:1009A00096C0628173819FEF623879070CF05BC05B
:1009B00022E83FEF261B370B2A3131052CF020E0CF
:1009C00030E040E050E02AC0B801A701022E04C088
:1009D00076956795579547950A94D2F781E090E010
:1009E000A0E0B0E004C0880F991FAA1FBB1F2A9582
:1009F000D2F70197A109B1098E219F21A023B1232C
:100A00000097A105B10521F081E090E0A0E0B0E001
:100A10009A01AB01282B392B4A2B5B2BDA01C90138
:100A20008F779070A070B07080349105A105B105EA
:100A300039F427FF09C0205C3F4F4F4F5F4F04C080
:100A4000215C3F4F4F4F5F4FE0E0F0E02030A0E0EF
:100A50003A07A0E04A07A0E45A0710F0E1E0F0E00E
:100A600079018A0127C06038710564F5FB01E158FE
:100A7000FF4FD801C7018F779070A070B07080349D
:100A80009105A105B10539F4E7FE0DC080E490E0C1
:100A9000A0E0B0E004C08FE390E0A0E0B0E0E80E9A
:100AA000F91E0A1F1B1F17FF05C016950795F7941F
:100AB000E794319687E016950795F794E7948A9521
:100AC000D1F705C0EE24FF248701EFEFF0E06E2F91
:100AD000679566276795902F9F77D794DD24D794E5
:100AE0008E2F8695492F462B582F5D29B701CA01B5
:100AF0001F910F91FF90EF90DF900895FC01DB01B3
:100B0000408151812281622F6F7770E0221F22275E
:100B1000221F9381892F880F822B282F30E0991F65
:100B20009927991F11969C93119721153105A9F5C5
:100B3000411551056105710511F482E037C082E865
:100B40009FEF13969C938E9312979A01AB0167E0E7
:100B5000220F331F441F551F6A95D1F783E08C93F2
:100B60000DC0220F331F441F551F12968D919C916B
:100B70001397019713969C938E931297203080E0E1
:100B8000380780E0480780E4580758F314962D93FF
:100B90003D934D935C93179708952F3F310579F45A
:100BA000411551056105710519F484E08C93089590
:100BB00064FF03C081E08C9312C01C9210C02F57B9
:100BC000304013963C932E93129783E08C9387E0EA
:100BD000440F551F661F771F8A95D1F770641496CE
:100BE0004D935D936D937C93179708951F93DC014C
:100BF000FB019C91923008F447C08081823008F458
:100C000043C0943051F411961C91843099F5818140
:100C1000682F70E0611B71093FC0843021F0923071
:100C200031F48230B9F18181882389F12DC0119688
:100C30001C9111978230F1F081811817D9F4129626
:100C40002D913C911397828193818217930794F0A1
:100C500028173907BCF014968D919D910D90BC9189
:100C6000A02D2481358146815781281739074A07ED
:100C70005B0718F4112341F00AC082179307A407F9
:100C8000B50740F4112319F061E070E005C06FEF83
:100C90007FEF02C060E070E0CB011F910895DF9309
:100CA000CF930F92CDB7DEB71982EAE3F0E08FEF72
:100CB0008083E7E3F0E01082E4E3F0E08FEF8083ED
:100CC000E1E3F0E0108289810F90CF91DF910895E8
:100CD000DF93CF9300D00F92CDB7DEB78A836B83BB
:100CE00019828B81813031F08B81882319F084E067
:100CF0008983C7C08A81803218F088E08983C1C0A7
:100D00008A81883060F58B818823A9F4ABE3B0E059
:100D1000EBE3F0E08081482F8A81282F30E081E0EA
:100D200090E0022E02C0880F991F0A94E2F7809586
:100D300084238C93A6C0ABE3B0E0EBE3F0E08081CA
:100D4000482F8A81282F30E081E090E0022E02C0F7
:100D5000880F991F0A94E2F7842B8C9392C08A81A2
:100D6000803178F58A8188508A838B818823A9F421
:100D7000A8E3B0E0E8E3F0E08081482F8A81282FE3
:100D800030E081E090E0022E02C0880F991F0A94A3
:100D9000E2F7809584238C9374C0A8E3B0E0E8E385
:100DA000F0E08081482F8A81282F30E081E090E0B8
:100DB000022E02C0880F991F0A94E2F7842B8C93AD
:100DC00060C08A81883178F58A8180518A838B81DD
:100DD0008823A9F4A5E3B0E0E5E3F0E08081482FA3
:100DE0008A81282F30E081E090E0022E02C0880F37
:100DF000991F0A94E2F7809584238C9342C0A5E35F
:100E0000B0E0E5E3F0E08081482F8A81282F30E0D0
:100E100081E090E0022E02C0880F991F0A94E2F749
:100E2000842B8C932EC08A8188518A838B8188235E
:100E3000A9F4A2E3B0E0E2E3F0E08081482F8A81E8
:100E4000282F30E081E090E0022E02C0880F991F29
:100E50000A94E2F7809584238C9313C0A2E3B0E058
:100E6000E2E3F0E08081482F8A81282F30E081E0A2
:100E700090E0022E02C0880F991F0A94E2F7842B9B
:100E80008C9389810F900F900F90CF91DF910895EF
:100E9000DF93CF9300D000D0CDB7DEB78A837C83B9
:100EA0006B8319828A81803218F088E0898306C0BA
:100EB0008B819C81009711F480E189838A8188303D
:100EC000A0F4E9E3F0E08081282F30E08A81882FC8
:100ED00090E0A90102C0559547958A95E2F7CA01AD
:100EE0008170EB81FC8180834AC08A818031B8F4B3
:100EF0008A8188508A83E6E3F0E08081282F30E001
:100F00008A81882F90E0A90102C0559547958A955E
:100F1000E2F7CA018170EB81FC81808330C08A8155
:100F20008831B8F48A8180518A83E3E3F0E08081DC
:100F3000282F30E08A81882F90E0A90102C05595C2
:100F400047958A95E2F7CA018170EB81FC81808325
:100F500016C08A8188518A83E0E3F0E08081282FDF
:100F600030E08A81882F90E0A90102C0559547950D
:100F70008A95E2F7CA018170EB81FC8180838981C7
:100F80000F900F900F900F90CF91DF910895DF9306
:100F9000CF9300D00F92CDB7DEB78A836B831982CF
:100FA0008B81813031F08B81882319F084E0898333
:100FB00005C08A81803210F088E089838A81883078
:100FC00060F58B818823A9F4AAE3B0E0EAE3F0E0BE
:100FD0008081482F8A81282F30E081E090E0022E26
:100FE00002C0880F991F0A94E2F7809584238C939E
:100FF000A6C0AAE3B0E0EAE3F0E08081482F8A814E
:10100000282F30E081E090E0022E02C0880F991F67
:101010000A94E2F7842B8C9392C08A81803178F510
:101020008A8188508A838B818823A9F4A7E3B0E062
:10103000E7E3F0E08081482F8A81282F30E081E0CB
:1010400090E0022E02C0880F991F0A94E2F7809563
:1010500084238C9374C0A7E3B0E0E7E3F0E08081E1
:10106000482F8A81282F30E081E090E0022E02C0D4
:10107000880F991F0A94E2F7842B8C9360C08A81B1
:10108000883178F58A8180518A838B818823A9F4FD
:10109000A4E3B0E0E4E3F0E08081482F8A81282FC8
:1010A00030E081E090E0022E02C0880F991F0A9480
:1010B000E2F7809584238C9342C0A4E3B0E0E4E39C
:1010C000F0E08081482F8A81282F30E081E090E095
:1010D000022E02C0880F991F0A94E2F7842B8C938A
:1010E0002EC08A8188518A838B818823A9F4A1E349
:1010F000B0E0E1E3F0E08081482F8A81282F30E0E2
:1011000081E090E0022E02C0880F991F0A94E2F756
:10111000809584238C9313C0A1E3B0E0E1E3F0E079
:101120008081482F8A81282F30E081E090E0022ED4
:1011300002C0880F991F0A94E2F7842B8C9389814F
:101140000F900F900F90CF91DF910895DF93CF9381
:1011500000D0CDB7DEB78A8319828A81803218F039
:1011600088E0898361C08A818830A0F4ABE3B0E075
:10117000EBE3F0E08081482F8A81282F30E081E086
:1011800090E0022E02C0880F991F0A94E2F784278C
:101190008C934AC08A818031B8F48A8188508A83CE
:1011A000A8E3B0E0E8E3F0E08081482F8A81282FAF
:1011B00030E081E090E0022E02C0880F991F0A946F
:1011C000E2F784278C9330C08A818831B8F48A8111
:1011D00080518A83A5E3B0E0E5E3F0E08081482F09
:1011E0008A81282F30E081E090E0022E02C0880F33
:1011F000991F0A94E2F784278C9316C08A8188513C
:101200008A83A2E3B0E0E2E3F0E08081482F8A81A4
:10121000282F30E081E090E0022E02C0880F991F55
:101220000A94E2F784278C9389810F900F90CF91D5
:10123000DF910895DF93CF930F92CDB7DEB7898307
:10124000898161E00E9468060F90CF91DF91089537
:10125000DF93CF9300D000D00F92CDB7DEB79D8340
:101260008C831A82198238C08981882F90E0FC0112
:10127000E859FF4F808160E00E94C7078981882F6D
:1012800090E0FC01E859FF4F80810E941A09898192
:10129000882F90E0FC01E859FF4F80819E012D5F6F
:1012A0003F4FB9010E944807EC81FD818081482FA2
:1012B0008B81282F30E08981882F90E0B90102C00E
:1012C000660F771F8A95E2F7CB01842BEC81FD81B5
:1012D000808389818F5F89838981883028F28A8120
:1012E0000F900F900F900F900F90CF91DF91089576
:1012F000DF93CF9300D00F92CDB7DEB78B831A82E6
:10130000198233C08981882F90E0FC01E859FF4F92
:10131000808161E00E94C7078B81282F30E089819E
:10132000882F90E0A90102C0559547958A95E2F76C
:10133000CA0181709070882359F08981882F90E0CC
:10134000FC01E859FF4F808161E00E9468060AC0F5
:101350008981882F90E0FC01E859FF4F808160E08F
:101360000E94680689818F5F89838981883050F265
:101370008A810F900F900F90CF91DF910895DF93A6
:10138000CF9300D000D00F92CDB7DEB79D838C8372
:101390001A82198238C08981882F90E0FC01E059B7
:1013A000FF4F808160E00E94C7078981882F90E00D
:1013B000FC01E059FF4F80810E941A098981882F22
:1013C00090E0FC01E059FF4F80819E012D5F3F4F6F
:1013D000B9010E944807EC81FD818081482F8B81F3
:1013E000282F30E08981882F90E0B90102C0660F74
:1013F000771F8A95E2F7CB01842BEC81FD818083F6
:1014000089818F5F89838981883028F28A810F9052
:101410000F900F900F900F90CF91DF910895DF9371
:10142000CF9300D00F92CDB7DEB78B831A8219828B
:1014300033C08981882F90E0FC01E059FF4F808103
:1014400061E00E94C7078B81282F30E08981882FB7
:1014500090E0A90102C0559547958A95E2F7CA0127
:1014600081709070882359F08981882F90E0FC0169
:10147000E059FF4F808161E00E9468060AC08981BF
:10148000882F90E0FC01E059FF4F808160E00E94CE
:10149000680689818F5F89838981883050F28A81CB
:1014A0000F900F900F90CF91DF910895DF93CF931E
:1014B00000D000D00F92CDB7DEB79D838C83EC8136
:1014C000FD8110821A821B82198238C08981882F7F
:1014D00090E0FC01E858FF4F808160E00E94C70760
:1014E0008981882F90E0FC01E858FF4F80810E949D
:1014F0001A098981882F90E0FC01E858FF4F80810C
:101500009E012D5F3F4FB9010E944807EC81FD818C
:101510008081482F8B81282F30E08981882F90E0AF
:10152000B90102C0660F771F8A95E2F7CB01842BC1
:10153000EC81FD81808389818F5F898389818830F7
:1015400028F28A810F900F900F900F900F90CF91FB
:10155000DF910895DF93CF9300D00F92CDB7DEB720
:101560008B831A82198233C08981882F90E0FC0115
:10157000E858FF4F808161E00E94C7078B81282FC8
:1015800030E08981882F90E0A90102C055954795E8
:101590008A95E2F7CA0181709070882359F0898199
:1015A000882F90E0FC01E858FF4F808161E00E94A5
:1015B00068060AC08981882F90E0FC01E858FF4F37
:1015C000808160E00E94680689818F5F89838981BC
:1015D000883050F28A810F900F900F90CF91DF9159
:1015E0000895DF93CF9300D000D00F92CDB7DEB730
:1015F0008A836B8319828B818F3F11F48FEF8983EC
:101600008A81282F30E03D832C838C819D8181301D
:101610009105D1F02C813D81223031052CF48C8153
:101620009D81009761F01EC02C813D8122303105E3
:1016300081F08C819D818330910581F013C0EAE3B4
:10164000F0E0898180830EC0E7E3F0E08981808348
:1016500009C0E4E3F0E08981808304C0E1E3F0E0C5
:10166000898180830F900F900F900F900F90CF91F2
:10167000DF910895DF93CF9300D000D0CDB7DEB7D0
:1016800089836A838981282F30E03C832B838B8177
:101690009C8181309105D1F02B813C812230310534
:1016A0002CF48B819C81009761F01EC02B813C81C2
:1016B0002230310581F08B819C818330910581F04E
:1016C00013C0EBE3F0E08A8180830EC0E8E3F0E032
:1016D0008A81808309C0E5E3F0E08A81808304C0C9
:1016E000E2E3F0E08A8180830F900F900F900F90DB
:1016F000CF91DF910895DF93CF93CDB7DEB781E02F
:101700000E94020CCF91DF910895DF93CF9300D018
:1017100000D0CDB7DEB79B838A836C838A819B819F
:10172000892F9927806589830E941F0C88E00E9479
:10173000980C8130D1F489810E943A0C88E10E9492
:10174000980C813091F48A810E946E0C88E20E948C
:10175000980C813051F48C810E946E0C88E20E94BA
:10176000980C813011F40E942F0C0F900F900F9065
:101770000F90CF91DF910895DF93CF9300D000D0E9
:101780000F92CDB7DEB79B838A837D836C838A817A
:101790009B81892F9927806589830E941F0C88E08F
:1017A0000E94980C813031F589810E943A0C88E1C1
:1017B0000E94980C8130F1F48A810E946E0C88E2BC
:1017C0000E94980C8130B1F40E941F0C80E10E94AD
:1017D000980C813079F489810E94520C80E40E9437
:1017E000980C813039F40E94850CEC81FD81808356
:1017F0000E942F0C0F900F900F900F900F90CF9191
:10180000DF910895DF93CF930F92CDB7DEB7898331
:10181000E0E2F0E088E08083E1E2F0E01082A6E51B
:10182000B0E0E6E5F0E0808184608C93E2E2F0E0F5
:101830008981880F80830F90CF91DF910895DF9386
:10184000CF93CDB7DEB7E6E5F0E084EA8083E6E546
:10185000F0E080818823DCF7CF91DF910895DF935A
:10186000CF93CDB7DEB7E6E5F0E084E98083CF9192
:10187000DF910895DF93CF930F92CDB7DEB78983C1
:10188000E3E2F0E08981880F8083E6E5F0E084E818
:101890008083E6E5F0E080818823DCF70F90CF912C
:1018A000DF910895DF93CF930F92CDB7DEB7898391
:1018B000E3E2F0E08981882F90E0880F991F816032
:1018C0008083E6E5F0E084E88083E6E5F0E080816F
:1018D0008823DCF70F90CF91DF910895DF93CF93AA
:1018E0000F92CDB7DEB78983E3E2F0E08981808390
:1018F000E6E5F0E084E88083E6E5F0E08081882397
:10190000DCF70F90CF91DF910895DF93CF93CDB7A0
:10191000DEB7E6E5F0E084E88083E6E5F0E080818C
:101920008823DCF7E3E2F0E08081CF91DF91089536
:10193000DF93CF9300D0CDB7DEB78A83E1E2F0E04A
:101940008081882F90E09C01287F30708A81882FC9
:1019500090E02817390719F481E0898301C01982C2
:1019600089810F900F90CF91DF910895DF93CF93EE
:1019700000D000D0CDB7DEB79A8389837C836B8398
:10198000E981FA818CE18083E981FA818BE18183AD
:10199000E981FA818AE18283E981FA8189E183839D
:1019A000E981FA8188E18483E981FA8182E1858392
:1019B000E981FA8183E18683E981FA8184E1878381
:1019C000E981FA8185E18087E981FA8186E1818771
:1019D000E981FA8187E1828789819A81FC013B96BE
:1019E0008FE1808389819A81FC013B968EE181831E
:1019F00089819A81FC013B968DE1828389819A815C
:101A0000FC013B9684E1838389819A81FC013B96AA
:101A100085E1848389819A81FC013B9686E18583F7
:101A200089819A81FC013B9687E1868389819A812D
:101A3000FC013B9687E0878389819A81FC013B9674
:101A400086E0808789819A81FC013B9685E08187C9
:101A500089819A81FC013B9684E082870F900F90E8
:101A60000F900F90CF91DF910895DF93CF930F9256
:101A7000CDB7DEB7198280E890E062E070E00E94A6
:101A8000B60C89810F90CF91DF9108950F931F932A
:101A9000DF93CF93CDB7DEB7CF54D0400FB6F894D5
:101AA000DEBF0FBECDBFFE01E15BFF4F8083FE01B5
:101AB000E25BFF4F1082FE01E15BFF4F8081482F08
:101AC00050E0CA01880F991F9C01220F331F220F7B
:101AD000331F820F931F840F951FFC01EE57FF4F9A
:101AE000808161E00E94C707FE01E15BFF4F8081BA
:101AF000482F50E0CA01880F991F9C01220F331F05
:101B0000220F331F820F931F840F951FFC01EF5785
:101B1000FF4F808161E00E94C707FE01E15BFF4F3C
:101B20008081482F50E0CA01880F991F9C01220F25
:101B3000331F220F331F820F931F840F951FFC0149
:101B4000E058FF4F808161E00E94C707FE01E35B20
:101B5000FF4F10822AC0FE01E15BFF4F8081482FBA
:101B600050E0FE01E35BFF4F8081682F70E0CA0107
:101B7000880F991F9C01220F331F220F331F820FE2
:101B8000931F840F951F860F971FFC01ED57FF4F82
:101B9000808161E00E94C707DE01A35BBF4FFE01A9
:101BA000E35BFF4F80818F5F8C93FE01E35BFF4F10
:101BB0008081883080F2FE01E15BFF4F8081482FF9
:101BC00050E0CA01880F991F9C01220F331F220F7A
:101BD000331F820F931F840F951FFC01EE57FF4F99
:101BE000808160E00E946806FE01E75BFF4F80E0B5
:101BF00090E0A0EFB1E480839183A283B3838E0150
:101C00000B5B1F4FFE01E75BFF4F6081718182819B
:101C1000938120E030E04AEF54E40E941F02DC018F
:101C2000CB01F80180839183A283B383FE01EB5B38
:101C3000FF4F608171818281938120E030E040E834
:101C40005FE30E942504882344F4FE01ED5BFF4F0F
:101C500081E090E09183808364C0FE01EB5BFF4FE5
:101C6000608171818281938120E03FEF4FE757E4EB
:101C70000E94C50318160CF043C0FE01E75BFF4F3E
:101C8000608171818281938120E030E040E251E403
:101C90000E941F02DC01CB018E010D5B1F4FBC01B6
:101CA000CD010E944900DC01CB01F80191838083C2
:101CB0001FC0FE01EF5BFF4F88EC90E091838083B3
:101CC000FE01EF5BFF4F808191810197F1F7FE01EB
:101CD000EF5BFF4F91838083DE01AD5BBF4FFE0161
:101CE000ED5BFF4F80819181019711969C938E93BC
:101CF000FE01ED5BFF4F808191810097D1F624C0FA
:101D00008E010D5B1F4FFE01EB5BFF4F6081718108
:101D1000828193810E944900DC01CB01F80191830B
:101D20008083FE01ED5BFF4F80819181FE01FF9674
:101D300091838083FE01FF96808191810197F1F765
:101D4000FE01FF9691838083FE01E15BFF4F88E3F4
:101D500060810E94BE1080E090E0A0E2B2E48BAF10
:101D60009CAFADAFBEAF6BAD7CAD8DAD9EAD2BEA84
:101D70003AEA4AE250E40E941F02DC01CB018FAB39
:101D800098AFA9AFBAAF6FA978AD89AD9AAD20E091
:101D900030E040E85FE30E94250488231CF481E0E2
:101DA0008EAB91C06FA978AD89AD9AAD20E030E0DF
:101DB0004FE753E40E94C50318160CF07BC06BADCF
:101DC0007CAD8DAD9EAD20E030E04AE754E40E944A
:101DD0001903DC01CB018AAB9BABACABBDAB6AA9F1
:101DE0007BA98CA99DA920E030E04AEF54E40E9431
:101DF0001F02DC01CB018EA79FA7A8ABB9AB6EA5D4
:101E00007FA588A999A920E030E040E85FE30E941F
:101E1000250488232CF481E090E09DA78CA73FC087
:101E20006EA57FA588A999A920E03FEF4FE757E469
:101E30000E94C50318164CF56AA97BA98CA99DA917
:101E400020E030E040E251E40E941F02DC01CB01BF
:101E5000BC01CD010E944900DC01CB019DA78CA7EC
:101E60000FC088EC90E09BA78AA78AA59BA5019745
:101E7000F1F79BA78AA78CA59DA501979DA78CA785
:101E80008CA59DA5009769F724C06EA57FA588A99C
:101E900099A90E944900DC01CB019DA78CA78CA5C4
:101EA0009DA599A788A788A599A50197F1F799A756
:101EB00088A70FC06FA978AD89AD9AAD0E9449007F
:101EC000DC01CB018EAB8EA98FA38FA18A95F1F790
:101ED0008FA3FE01E15BFF4F8FE060810E94BE1087
:101EE00080E090E0A0E2B2E48BA39CA3ADA3BEA3EC
:101EF0006BA17CA18DA19EA12BEA3AEA4AE250E4B3
:101F00000E941F02DC01CB018F8F98A3A9A3BAA363
:101F10006F8D78A189A19AA120E030E040E85FE3CD
:101F20000E94250488231CF481E08E8F91C06F8D60
:101F300078A189A19AA120E030E04FE753E40E9404
:101F4000C50318160CF07BC06BA17CA18DA19EA1CE
:101F500020E030E04AE754E40E941903DC01CB01A1
:101F60008A8F9B8FAC8FBD8F6A8D7B8D8C8D9D8D65
:101F700020E030E04AEF54E40E941F02DC01CB0174
:101F80008E8B9F8BA88FB98F6E897F89888D998D55
:101F900020E030E040E85FE30E94250488232CF431
:101FA00081E090E09D8B8C8B3FC06E897F89888D0E
:101FB000998D20E03FEF4FE757E40E94C5031816C4
:101FC0004CF56A8D7B8D8C8D9D8D20E030E040E25C
:101FD00051E40E941F02DC01CB01BC01CD010E9433
:101FE0004900DC01CB019D8B8C8B0FC088EC90E00D
:101FF0009B8B8A8B8A899B890197F1F79B8B8A8BB4
:102000008C899D8901979D8B8C8B8C899D890097EC
:1020100069F724C06E897F89888D998D0E94490057
:10202000DC01CB019D8B8C8B8C899D89998B888B56
:10203000888999890197F1F7998B888B0FC06F8DEB
:1020400078A189A19AA10E944900DC01CB018E8F61
:102050008E8D8F878F858A95F1F78F87FE01E15BE3
:10206000FF4F81E060810E94BE1080E090E0A0E020
:10207000B0E48B879C87AD87BE876B857C858D851B
:102080009E8520E030E04AEF54E40E941F02DC010C
:10209000CB018F839887A987BA876F8178858985D7
:1020A0009A8520E030E040E85FE30E942504882321
:1020B0002CF481E090E09E838D833FC06F81788512
:1020C00089859A8520E03FEF4FE757E40E94C503DA
:1020D00018164CF56B857C858D859E8520E030E05B
:1020E00040E251E40E941F02DC01CB01BC01CD01A2
:1020F0000E944900DC01CB019E838D830FC088ECD8
:1021000090E09C838B838B819C810197F1F79C836A
:102110008B838D819E8101979E838D838D819E818E
:10212000009769F714C06F81788589859A850E9428
:102130004900DC01CB019E838D838D819E819A8332
:10214000898389819A810197F1F79A838983FE01B6
:10215000E15BFF4F86E060810E94BE10FE01E25B02
:10216000FF4F8081C15BDF4F0FB6F894DEBF0FBE1B
:10217000CDBFCF91DF911F910F910895DF93CF9342
:10218000CDB7DEB761970FB6F894DEBF0FBECDBFF7
:10219000888B698B1F868989482F50E0CA01880F78
:1021A000991F9C01220F331F220F331F820F931F91
:1021B000840F951FFC01E058FF4F808160E00E9472
:1021C0006806888969890E941A138989482F50E016
:1021D000CA01880F991F9C01220F331F220F331F42
:1021E000820F931F840F951FFC01EE57FF4F8081D4
:1021F00061E00E94680680E090E0A0E0B0E48B8798
:102200009C87AD87BE876B857C858D859E8520E00C
:1022100030E04AEF54E40E941F02DC01CB018F83BF
:102220009887A987BA876F81788589859A8520E004
:1022300030E040E85FE30E94250488232CF481E02D
:1022400090E09E838D833FC06F81788589859A85D4
:1022500020E03FEF4FE757E40E94C50318164CF506
:102260006B857C858D859E8520E030E040E251E4E1
:102270000E941F02DC01CB01BC01CD010E9449007C
:10228000DC01CB019E838D830FC088EC90E09C83A2
:102290008B838B819C810197F1F79C838B838D814C
:1022A0009E8101979E838D838D819E81009769F722
:1022B00014C06F81788589859A850E944900DC0168
:1022C000CB019E838D838D819E819A8389838981B1
:1022D0009A810197F1F79A8389838989482F50E081
:1022E000CA01880F991F9C01220F331F220F331F31
:1022F000820F931F840F951FFC01EE57FF4F8081C3
:1023000060E00E9468068F8561960FB6F894DEBF84
:102310000FBECDBFCF91DF910895DF93CF93CDB79F
:10232000DEB7A9970FB6F894DEBF0FBECDBF88A762
:1023300069A71FA289A5482F50E0CA01880F991FDD
:102340009C01220F331F220F331F820F931F840F14
:10235000951FFC01E058FF4F808161E00E946806F4
:1023600088A569A50E941A1389A5482F50E0CA01C3
:10237000880F991F9C01220F331F220F331F820FDA
:10238000931F840F951FFC01EE57FF4F808161E082
:102390000E94680680E090E0A0E8BFE38BA39CA3C6
:1023A000ADA3BEA36BA17CA18DA19EA120E030E0D6
:1023B0004AEF54E40E941F02DC01CB018F8F98A3E7
:1023C000A9A3BAA36F8D78A189A19AA120E030E0DA
:1023D00040E85FE30E94250488232CF481E090E02C
:1023E0009E8F8D8F3FC06F8D78A189A19AA120E02B
:1023F0003FEF4FE757E40E94C50318164CF56BA159
:102400007CA18DA19EA120E030E040E251E40E9439
:102410001F02DC01CB01BC01CD010E944900DC019F
:10242000CB019E8F8D8F0FC088EC90E09C8F8B8F9F
:102430008B8D9C8D0197F1F79C8F8B8F8D8D9E8D51
:1024400001979E8F8D8F8D8D9E8D009769F714C09B
:102450006F8D78A189A19AA10E944900DC01CB016E
:102460009E8F8D8F8D8D9E8D9A8F898F898D9A8D60
:102470000197F1F79A8F898F89A5482F50E0CA01FB
:10248000880F991F9C01220F331F220F331F820FC9
:10249000931F840F951FFC01EE57FF4F808160E072
:1024A0000E94680680E090E0A0E2B2E48D8B9E8BF3
:1024B000AF8BB88F6D897E898F89988D2BEA3AEA28
:1024C0004AE250E40E941F02DC01CB01898B9A8B07
:1024D000AB8BBC8B69897A898B899C8920E030E041
:1024E00040E85FE30E94250488231CF481E0888B88
:1024F00091C069897A898B899C8920E030E04FE717
:1025000053E40E94C50318160CF07BC06D897E89C8
:102510008F89988D20E030E04AE754E40E94190347
:10252000DC01CB018C879D87AE87BF876C857D855D
:102530008E859F8520E030E04AEF54E40E941F0220
:10254000DC01CB0188879987AA87BB876885798555
:102550008A859B8520E030E040E85FE30E94250407
:1025600088232CF481E090E09F838E833FC06885B0
:1025700079858A859B8520E03FEF4FE757E40E94ED
:10258000C50318164CF56C857D858E859F8520E0EA
:1025900030E040E251E40E941F02DC01CB01BC01AB
:1025A000CD010E944900DC01CB019F838E830FC0C7
:1025B00088EC90E09D838C838C819D810197F1F75D
:1025C0009D838C838E819F8101979F838E838E81D3
:1025D0009F81009769F724C0688579858A859B85E6
:1025E0000E944900DC01CB019F838E838E819F81F5
:1025F0009B838A838A819B810197F1F79B838A83DE
:102600000FC069897A898B899C890E944900DC0105
:10261000CB01888B8889898389818A95F1F78983A1
:102620008FA1A9960FB6F894DEBF0FBECDBFCF9194
:10263000DF910895DF93CF9300D00F92CDB7DEB72F
:102640008A836B838B81482F50E0CA01880F991FC2
:102650009C01220F331F220F331F820F931F840F01
:10266000951FFC01EF57FF4F808160E00E946806D4
:10267000198219824BC08A81282F30E08981882FE6
:1026800090E0A90102C0559547958A95E2F7CA01E5
:10269000817090708823E1F08B81482F50E0898110
:1026A000682F70E0CA01880F991F9C01220F331F09
:1026B000220F331F820F931F840F951F860F971FC2
:1026C000FC01ED57FF4F808161E00E9468061BC04E
:1026D0008B81482F50E08981682F70E0CA01880FF4
:1026E000991F9C01220F331F220F331F820F931F4C
:1026F000840F951F860F971FFC01ED57FF4F8081B8
:1027000060E00E94680689818F5F898389818830B3
:1027100008F4B1CF0F900F900F90CF91DF910895F3
:10272000DF93CF9300D000D00F92CDB7DEB79C835C
:102730008B836D831A8219820FC08981282F30E024
:102740008B819C81FC01E20FF31F80816D810E94CF
:102750008D1189818F5F89838981282F30E08B815A
:102760009C81FC01E20FF31F8081882331F78A816D
:102770000F900F900F900F900F90CF91DF910895D1
:10278000DF93CF9300D000D0CDB7DEB78A836B83C1
:102790004C8319828B81882331F48A8180586C8123
:1027A0000E94BE1005C08A8180546C810E94BE10B8
:1027B00089810F900F900F900F90CF91DF91089526
:1027C000DF93CF930F92CDB7DEB70E947B0B0E94B1
:1027D000350D80E00E94460D80E090E09E012F5F65
:1027E0003F4FB9010E94BC0B898160E00E948D11AE
:1027F00081E090E09E012F5F3F4FB9010E94BC0B2A
:10280000898160E00E948D1182E090E09E012F5F3F
:102810003F4FB9010E94BC0B898160E00E948D117D
:1028200083E090E09E012F5F3F4FB9010E94BC0BF7
:10283000898160E00E948D1184E090E09E012F5F0D
:102840003F4FB9010E94BC0B898160E00E948D114D
:1028500085E090E09E012F5F3F4FB9010E94BC0BC5
:10286000898160E00E948D1186E090E09E012F5FDB
:102870003F4FB9010E94BC0B898160E00E948D111D
:1028800087E090E09E012F5F3F4FB9010E94BC0B93
:10289000898160E00E948D1188E090E09E012F5FA9
:1028A0003F4FB9010E94BC0B898160E00E948D11ED
:1028B00089E090E09E012F5F3F4FB9010E94BC0B61
:1028C000898160E00E948D11FFCF2F923F924F923D
:1028D0005F926F927F928F929F92AF92BF92CF92B0
:1028E000DF92EF92FF920F931F93CF93DF93CDB7B9
:1028F000DEB7CA1BDB0B0FB6F894DEBF0FBECDBF31
:1029000009942A88398848885F846E847D848C8401
:102910009B84AA84B984C884DF80EE80FD800C810A
:102920001B81AA81B981CE0FD11D0FB6F894DEBFED
:0C2930000FBECDBFED010895F894FFCF5D
:10293C000000000000000000000703121411131E19
:10294C00000703121411131E0A0B0C0D0E0F10119D
:00000001FF
