:100000000C942A000C9475050C9452060C942D0740
:100010000C9447000C9447000C9447000C94470044
:100020000C9447000C9447000C9447000C94470034
:100030000C9447000C9447000C9447000C94470024
:100040000C9447000C9447000C9447000C94470014
:100050000C94470011241FBECFE5D8E0DEBFCDBF12
:1000600010E0A0E6B0E0EEE0F1E102C005900D92F4
:10007000A837B107D9F710E0A8E7B0E001C01D929A
:10008000AF37B107E1F70E94FA070C9485080C948A
:100090000000DF93CF930F92CDB7DEB71982EAE36A
:1000A000F0E08FEF8083E7E3F0E01082E4E3F0E03C
:1000B0008FEF8083E1E3F0E0108289810F90CF9190
:1000C000DF910895DF93CF9300D00F92CDB7DEB7C5
:1000D0008A836B8319828B81813031F08B818823F5
:1000E00019F084E08983C7C08A81803218F088E0E3
:1000F0008983C1C08A81883060F58B818823A9F407
:10010000ABE3B0E0EBE3F0E08081482F8A81282F59
:1001100030E081E090E0022E02C0880F991F0A941F
:10012000E2F7809584238C93A6C0ABE3B0E0EBE3C9
:10013000F0E08081482F8A81282F30E081E090E034
:10014000022E02C0880F991F0A94E2F7842B8C9329
:1001500092C08A81803178F58A8188508A838B8128
:100160008823A9F4A8E3B0E0E8E3F0E08081482F19
:100170008A81282F30E081E090E0022E02C0880FB3
:10018000991F0A94E2F7809584238C9374C0A8E3A6
:10019000B0E0E8E3F0E08081482F8A81282F30E04A
:1001A00081E090E0022E02C0880F991F0A94E2F7C6
:1001B000842B8C9360C08A81883178F58A81805144
:1001C0008A838B818823A9F4A5E3B0E0E5E3F0E01E
:1001D0008081482F8A81282F30E081E090E0022E34
:1001E00002C0880F991F0A94E2F7809584238C93AC
:1001F00042C0A5E3B0E0E5E3F0E08081482F8A81CA
:10020000282F30E081E090E0022E02C0880F991F75
:100210000A94E2F7842B8C932EC08A8188518A83BA
:100220008B818823A9F4A2E3B0E0E2E3F0E08081CF
:10023000482F8A81282F30E081E090E0022E02C012
:10024000880F991F0A94E2F7809584238C9313C03A
:10025000A2E3B0E0E2E3F0E08081482F8A81282F1A
:1002600030E081E090E0022E02C0880F991F0A94CE
:10027000E2F7842B8C9389810F900F900F90CF9190
:10028000DF910895DF93CF9300D000D0CDB7DEB7D4
:100290008A837C836B8319828A81803218F088E09C
:1002A000898306C08B819C81009711F480E189834A
:1002B0008A818830A0F4E9E3F0E08081282F30E0E3
:1002C0008A81882F90E0A90102C0559547958A95AB
:1002D000E2F7CA018170EB81FC8180834AC08A8188
:1002E0008031B8F48A8188508A83E6E3F0E0808127
:1002F000282F30E08A81882F90E0A90102C055950F
:1003000047958A95E2F7CA018170EB81FC81808371
:1003100030C08A818831B8F48A8180518A83E3E3CE
:10032000F0E08081282F30E08A81882F90E0A901B9
:1003300002C0559547958A95E2F7CA018170EB8115
:10034000FC81808316C08A8188518A83E0E3F0E0D3
:100350008081282F30E08A81882F90E0A90102C097
:10036000559547958A95E2F7CA018170EB81FC812A
:10037000808389810F900F900F900F90CF91DF9124
:100380000895DF93CF9300D00F92CDB7DEB78A8365
:100390006B8319828B81813031F08B81882319F036
:1003A00084E0898305C08A81803210F088E08983E7
:1003B0008A81883060F58B818823A9F4AAE3B0E0B4
:1003C000EAE3F0E08081482F8A81282F30E081E045
:1003D00090E0022E02C0880F991F0A94E2F78095E0
:1003E00084238C93A6C0AAE3B0E0EAE3F0E0808126
:1003F000482F8A81282F30E081E090E0022E02C051
:10040000880F991F0A94E2F7842B8C9392C08A81FB
:10041000803178F58A8188508A838B818823A9F47A
:10042000A7E3B0E0E7E3F0E08081482F8A81282F3E
:1004300030E081E090E0022E02C0880F991F0A94FC
:10044000E2F7809584238C9374C0A7E3B0E0E7E3E0
:10045000F0E08081482F8A81282F30E081E090E011
:10046000022E02C0880F991F0A94E2F7842B8C9306
:1004700060C08A81883178F58A8180518A838B8136
:100480008823A9F4A4E3B0E0E4E3F0E08081482FFE
:100490008A81282F30E081E090E0022E02C0880F90
:1004A000991F0A94E2F7809584238C9342C0A4E3B9
:1004B000B0E0E4E3F0E08081482F8A81282F30E02B
:1004C00081E090E0022E02C0880F991F0A94E2F7A3
:1004D000842B8C932EC08A8188518A838B818823B8
:1004E000A9F4A1E3B0E0E1E3F0E08081482F8A8144
:1004F000282F30E081E090E0022E02C0880F991F83
:100500000A94E2F7809584238C9313C0A1E3B0E0B2
:10051000E1E3F0E08081482F8A81282F30E081E0FC
:1005200090E0022E02C0880F991F0A94E2F7842BF4
:100530008C9389810F900F900F90CF91DF91089548
:10054000DF93CF9300D0CDB7DEB78A8319828A813B
:10055000803218F088E0898361C08A818830A0F4F5
:10056000ABE3B0E0EBE3F0E08081482F8A81282FF5
:1005700030E081E090E0022E02C0880F991F0A94BB
:10058000E2F784278C934AC08A818031B8F48A814B
:1005900088508A83A8E3B0E0E8E3F0E08081482F48
:1005A0008A81282F30E081E090E0022E02C0880F7F
:1005B000991F0A94E2F784278C9330C08A8188318E
:1005C000B8F48A8180518A83A5E3B0E0E5E3F0E0E6
:1005D0008081482F8A81282F30E081E090E0022E30
:1005E00002C0880F991F0A94E2F784278C9316C0E3
:1005F0008A8188518A83A2E3B0E0E2E3F0E080815F
:10060000482F8A81282F30E081E090E0022E02C03E
:10061000880F991F0A94E2F784278C9389810F90A1
:100620000F90CF91DF910895DF93CF930F92CDB7C5
:10063000DEB78983898161E00E9462000F90CF91CB
:10064000DF910895DF93CF9300D000D00F92CDB704
:10065000DEB79D838C831A82198238C08981882FE6
:1006600090E0FC01E05AFF4F808160E00E94C101F0
:100670008981882F90E0FC01E05AFF4F80810E9421
:1006800014038981882F90E0FC01E05AFF4F80819C
:100690009E012D5F3F4FB9010E944201EC81FD8117
:1006A0008081482F8B81282F30E08981882F90E02E
:1006B000B90102C0660F771F8A95E2F7CB01842B40
:1006C000EC81FD81808389818F5F89838981883076
:1006D00028F28A810F900F900F900F900F90CF917A
:1006E000DF910895DF93CF9300D00F92CDB7DEB79F
:1006F0008B831A82198233C08981882F90E0FC0194
:10070000E05AFF4F808161E00E94C1018B81282F58
:1007100030E08981882F90E0A90102C05595479566
:100720008A95E2F7CA0181709070882359F0898117
:10073000882F90E0FC01E05AFF4F808161E00E9429
:1007400062000AC08981882F90E0FC01E05AFF4FC7
:10075000808160E00E94620089818F5F8983898146
:10076000883050F28A810F900F900F90CF91DF91D7
:100770000895DF93CF9300D000D00F92CDB7DEB7AE
:100780009D838C831A82198238C08981882F90E0DA
:10079000FC01E859FF4F808160E00E94C10189811E
:1007A000882F90E0FC01E859FF4F80810E941403DC
:1007B0008981882F90E0FC01E859FF4F80819E01DC
:1007C0002D5F3F4FB9010E944201EC81FD81808184
:1007D000482F8B81282F30E08981882F90E0B90144
:1007E00002C0660F771F8A95E2F7CB01842BEC815C
:1007F000FD81808389818F5F89838981883028F298
:100800008A810F900F900F900F900F90CF91DF91F2
:100810000895DF93CF9300D00F92CDB7DEB78B83CF
:100820001A82198233C08981882F90E0FC01E8592F
:10083000FF4F808161E00E94C1018B81282F30E051
:100840008981882F90E0A90102C0559547958A9526
:10085000E2F7CA0181709070882359F08981882F4E
:1008600090E0FC01E859FF4F808161E00E94620046
:100870000AC08981882F90E0FC01E859FF4F8081F0
:1008800060E00E94620089818F5F8983898188305E
:1008900050F28A810F900F900F90CF91DF910895C1
:1008A000DF93CF9300D000D00F92CDB7DEB79D83FA
:1008B0008C83EC81FD8110821A821B82198238C0E0
:1008C0008981882F90E0FC01E059FF4F808160E032
:1008D0000E94C1018981882F90E0FC01E059FF4FFF
:1008E00080810E9414038981882F90E0FC01E059E7
:1008F000FF4F80819E012D5F3F4FB9010E94420151
:10090000EC81FD818081482F8B81282F30E0898107
:10091000882F90E0B90102C0660F771F8A95E2F731
:10092000CB01842BEC81FD81808389818F5F89835A
:100930008981883028F28A810F900F900F900F9054
:100940000F90CF91DF910895DF93CF9300D00F9256
:10095000CDB7DEB78B831A82198233C08981882F85
:1009600090E0FC01E059FF4F808161E00E94C101ED
:100970008B81282F30E08981882F90E0A90102C067
:10098000559547958A95E2F7CA0181709070882342
:1009900059F08981882F90E0FC01E059FF4F808158
:1009A00061E00E9462000AC08981882F90E0FC010A
:1009B000E059FF4F808160E00E94620089818F5F73
:1009C00089838981883050F28A810F900F900F902F
:1009D000CF91DF910895DF93CF9300D000D00F9295
:1009E000CDB7DEB78A836B8319828B818F3F11F479
:1009F0008FEF89838A81282F30E03D832C838C817F
:100A00009D8181309105D1F02C813D8122303105CD
:100A10002CF48C819D81009761F01EC02C813D815A
:100A20002230310581F08C819D818330910581F0E8
:100A300013C0EAE3F0E0898180830EC0E7E3F0E0D1
:100A40008981808309C0E4E3F0E08981808304C068
:100A5000E1E3F0E0898180830F900F900F900F9079
:100A60000F90CF91DF910895DF93CF9300D000D006
:100A7000CDB7DEB789836A838981282F30E03C8334
:100A80002B838B819C8181309105D1F02B813C811E
:100A9000223031052CF48B819C81009761F01EC0BF
:100AA0002B813C812230310581F08B819C81833008
:100AB000910581F013C0EBE3F0E08A8180830EC0E2
:100AC000E8E3F0E08A81808309C0E5E3F0E08A8111
:100AD000808304C0E2E3F0E08A8180830F900F906E
:100AE0000F900F90CF91DF9108951F920F920FB644
:100AF0000F9211242F933F934F935F936F937F93A4
:100B00008F939F93AF93BF93EF93FF93DF93CF9315
:100B1000CDB7DEB7E0917800F09179000995CF91DB
:100B2000DF91FF91EF91BF91AF919F918F917F9155
:100B30006F915F914F913F912F910F900FBE0F904A
:100B40001F901895DF93CF93CDB7DEB7CF91DF918C
:100B50000895DF93CF93CDB7DEB7A5E5B0E0E5E527
:100B6000F0E080818C7F8C93A5E5B0E0E5E5F0E0D6
:100B7000808182608C93ABE5B0E0EBE5F0E08081B2
:100B80008F7B8C93AAE5B0E0EAE5F0E08081806499
:100B90008C9382EA95E09093790080937800CF91CE
:100BA000DF910895DF93CF93CDB7DEB7ABE5B0E02B
:100BB000EBE5F0E0808180648C93CF91DF91089524
:100BC000DF93CF93CDB7DEB7ABE5B0E0EBE5F0E078
:100BD00080818F7B8C93CF91DF910895DF93CF93AA
:100BE00000D0CDB7DEB79A83898389819A819093AB
:100BF0007900809378000F900F90CF91DF91089546
:100C0000DF93CF930F92CDB7DEB789838981882395
:100C100041F4A5E5B0E0E5E5F0E0808183608C93E8
:100C20002EC08981863479F4A5E5B0E0E5E5F0E0F1
:100C300080818C7F8C93A5E5B0E0E5E5F0E08081D4
:100C400082608C931CC089818B3079F4A5E5B0E07B
:100C5000E5E5F0E080818C7F8C93A5E5B0E0E5E5EB
:100C6000F0E0808181608C930AC089818D3039F4F5
:100C7000A5E5B0E0E5E5F0E080818C7F8C930F90F6
:100C8000CF91DF910895DF93CF93CDB7DEB7EAE53B
:100C9000F0E0808182958695869583708170CF91F2
:100CA000DF9108951F920F920FB60F9211242F9388
:100CB0003F934F935F936F937F938F939F93AF93E4
:100CC000BF93EF93FF93DF93CF93CDB7DEB7E09160
:100CD0007A00F0917B000995CF91DF91FF91EF9120
:100CE000BF91AF919F918F917F916F915F914F9144
:100CF0003F912F910F900FBE0F901F901895DF938B
:100D0000CF93CDB7DEB7CF91DF910895DF93CF9327
:100D1000CDB7DEB7A5E5B0E0E5E5F0E08081837F03
:100D20008C93A5E5B0E0E5E5F0E0808188608C93E8
:100D3000ABE5B0E0EBE5F0E080818F778C93AAE53E
:100D4000B0E0EAE5F0E0808180688C938FE796E080
:100D500090937B0080937A00CF91DF910895DF9389
:100D6000CF93CDB7DEB7ABE5B0E0EBE5F0E0808147
:100D700080688C93CF91DF910895DF93CF93CDB7A7
:100D8000DEB7ABE5B0E0EBE5F0E080818F778C93E8
:100D9000CF91DF910895DF93CF9300D0CDB7DEB729
:100DA0009A83898389819A8190937B0080937A00CA
:100DB0000F900F90CF91DF910895DF93CF930F9213
:100DC000CDB7DEB789838981882341F4A5E5B0E0FA
:100DD000E5E5F0E080818C608C932EC089818634BB
:100DE00079F4A5E5B0E0E5E5F0E08081837F8C93C0
:100DF000A5E5B0E0E5E5F0E0808188608C931CC05B
:100E000089818B3079F4A5E5B0E0E5E5F0E08081FB
:100E1000837F8C93A5E5B0E0E5E5F0E08081846018
:100E20008C930AC089818D3039F4A5E5B0E0E5E501
:100E3000F0E08081837F8C930F90CF91DF910895B4
:100E4000DF93CF93CDB7DEB7EAE5F0E08081881F6E
:100E50008827881FCF91DF9108951F920F920FB6B8
:100E60000F9211242F933F934F935F936F937F9330
:100E70008F939F93AF93BF93EF93FF93DF93CF93A2
:100E8000CDB7DEB7E0917C00F0917D000995CF9160
:100E9000DF91FF91EF91BF91AF919F918F917F91E2
:100EA0006F915F914F913F912F910F900FBE0F90D7
:100EB0001F901895DF93CF93CDB7DEB7CF91DF9119
:100EC0000895DF93CF93CDB7DEB7A4E5B0E0E4E5B6
:100ED000F0E080818F7B8C93ABE5B0E0EBE5F0E058
:100EE00080818F7D8C93AAE5B0E0EAE5F0E0808117
:100EF00080628C938AE597E090937D0080937C00DC
:100F0000CF91DF910895DF93CF93CDB7DEB7ABE5F7
:100F1000B0E0EBE5F0E0808180628C93CF91DF91CF
:100F20000895DF93CF93CDB7DEB7ABE5B0E0EBE547
:100F3000F0E080818F7D8C93CF91DF910895DF93D6
:100F4000CF9300D0CDB7DEB79A83898389819A8108
:100F500090937D0080937C000F900F90CF91DF9154
:100F60000895DF93CF930F92CDB7DEB78983898140
:100F7000882341F4A4E5B0E0E4E5F0E080818064FA
:100F80008C930AC08981863439F4A4E5B0E0E4E5A5
:100F9000F0E080818F7B8C930F90CF91DF9108954B
:100FA000DF93CF93CDB7DEB7EAE5F0E0808182959D
:100FB000869587708170CF91DF910895DF93CF93ED
:100FC000CDB7DEB7AFE5B0E0EFE5F0E08081806857
:100FD0008C93CF91DF910895DF93CF93CDB7DEB798
:100FE000AFE5B0E0EFE5F0E080818F778C93CF91B3
:100FF000DF910895DF93CF93CDB7DEB78AE160E04C
:101000000E94C1018BE160E00E94C1018AE060E0C2
:101010000E94C1018AE10E9414038BE10E94140323
:101020008AE00E9414030E94A9050E94D2058EE264
:1010300098E00E94EE050E9486060E94AF068BE4AF
:1010400098E00E94CB060E9461070E94830788E611
:1010500098E00E949F070E94DE07FFCFDF93CF93A7
:10106000CDB7DEB740917E00842F90E09C012770C1
:10107000307081E090E002C0880F991F2A95E2F756
:10108000982F842F8F5F80937E00892F0E94720398
:10109000CF91DF910895DF93CF93CDB7DEB7409125
:1010A0007E00842F90E09C012770307081E090E0FA
:1010B00002C0880F991F2A95E2F7982F842F81503C
:1010C00080937E00892F0E947203CF91DF91089553
:1010D000DF93CF93CDB7DEB740917E00842F90E0B1
:1010E0009C012770307083E090E002C0880F991F48
:1010F0002A95E2F7982F842F8F5F80937E00892FA7
:0E1100000E947203CF91DF910895F894FFCF03
:10110E000001020304050607000703121411131E43
:08111E000A0B0C0D0E0F10115D
:00000001FF
