:100000000C942A000C943F000C943F000C943F0089
:100010000C943F000C943F000C943F000C943F0064
:100020000C943F000C943F000C943F000C943F0054
:100030000C943F000C943F000C943F000C943F0044
:100040000C943F000C943F000C943F000C943F0034
:100050000C943F0011241FBECFE5D8E0DEBFCDBF1A
:1000600010E0A0E6B0E0EEE4F1E002C005900D92F1
:10007000A436B107D9F70E9441000C94A5000C9456
:100080000000DF93CF93CDB7DEB7EAE3F0E0108254
:10009000EBE3F0E08FEF8083E7E3F0E08FEF808326
:1000A000E4E3F0E08FEF8083E1E3F0E08FEF808323
:1000B000E8E3F0E01082E9E3F0E08081833451F47A
:1000C000E2E3F0E0809160008083E5E3F0E08CE320
:1000D0008083F1CFE9E3F0E080818F3451F4E2E3F3
:1000E000F0E0809161008083E5E3F0E080E38083CD
:1000F000E2CFE9E3F0E080818B3551F4E2E3F0E018
:10010000809162008083E5E3F0E084E28083D3CFD6
:10011000E9E3F0E0808188236CF0E2E3F0E08FEF28
:100120008083E5E3F0E081E08083E8E3F0E081E0D4
:100130008083C1CFE2E3F0E08FEF8083E5E3F0E07E
:0E0140001082E8E3F0E01082B6CFF894FFCF13
:04014E008880C600DF
:00000001FF
