:100000000C942A000C94380C0C9447000C94470074
:100010000C9447000C9447000C9447000C940D106E
:100020000C9447000C9447000C94200F0C94CE0EB7
:100030000C9447000C9447000C9447000C94470024
:100040000C9447000C9447000C9447000C94470014
:100050000C94470011241FBECFE5D8E0DEBFCDBF12
:1000600012E0A0E6B0E0E0EEF0E202C005900D92F2
:10007000A238B107D9F713E0A2E8B2E001C01D929F
:10008000AD39B107E1F70E9441100C946E100C9449
:100090000000DF93CF93CDB7DEB784E10E94AC08B8
:1000A000CF91DF910895DF93CF93CDB7DEB7109254
:1000B00090021092910287E00E94AC08CF91DF91EC
:1000C0000895DF93CF93CDB7DEB70E9455068AE13E
:1000D0000E9420090E94930B83E590E00E94810B0F
:1000E00064E170E080E090E00E941F0E8FE790E0F6
:1000F0000E94B20E0E94650CCF91DF910895DF93AC
:10010000CF93CDB7DEB780919002882F90E0880F13
:10011000991F8D579C4F009791F19091900280917B
:100120008F02981760F580919002882F90E0880FD9
:10013000991FFC01ED57FC4F208131818091910284
:10014000882F90E0F901E80FF91F908182E0692F74
:100150000E94400B80E00E94AC08809191028730A1
:1001600040F010929102809190028F5F80939002F4
:1001700010C0809191028F5F809391020AC090918C
:10018000900280918F02981720F082E060E00E9438
:10019000400BCF91DF910895DF93CF9300D00F9262
:1001A000CDB7DEB789838981282F30E03B832A834E
:1001B0008A819B818535910509F41CC42A813B8184
:1001C000263531050CF0C2C08A819B8185349105AA
:1001D00009F430C32A813B81263431050CF061C01B
:1001E0008A819B818633910509F4ACC42A813B81C5
:1001F000273331055CF58A819B818233910509F4AF
:1002000069C42A813B81233331059CF48A819B8117
:100210008033910509F442C42A813B8121333105A1
:100220000CF04AC48A819B818032910509F450C147
:10023000C0C42A813B812433310509F467C48A8113
:100240009B81853391050CF06FC452C42A813B8198
:100250002134310509F4B6C28A819B81823491052B
:100260009CF42A813B812833310509F487C48A81B3
:100270009B81883391050CF473C42A813B81293317
:10028000310509F489C495C48A819B818334910521
:1002900009F4B4C22A813B81243431050CF0BCC27C
:1002A0009FC28A819B818D34910509F433C32A81D1
:1002B0003B812E3431052CF58A819B81893491054F
:1002C00009F4F0C22A813B812A3431056CF48A8119
:1002D0009B818734910509F4C9C22A813B81283466
:1002E00031050CF0D1C2B4C28A819B818B34910557
:1002F00009F4F4C22A813B812C3431050CF0FCC294
:10030000DFC28A819B818135910509F43BC32A8133
:100310003B81223531056CF48A819B818F349105B4
:1003200009F414C32A813B81203531050CF01CC32C
:10033000FFC28A819B818335910509F43FC32A81DD
:100340003B81243531050CF047C32AC38A819B8148
:100350008B36910509F464C12A813B812C36310525
:100360000CF05BC08A819B818336910509F4DAC069
:100370002A813B81243631055CF58A819B81893550
:10038000910509F46FC32A813B812A3531056CF44C
:100390008A819B818735910509F448C32A813B8175
:1003A000283531050CF050C333C38A819B818136D7
:1003B000910509F49BC02A813B81223631050CF05E
:1003C000A3C08A819B818A35910509F459C3F1C381
:1003D0002A813B812736310509F4EAC08A819B8155
:1003E000883691056CF42A813B812536310509F464
:1003F000B5C08A819B81863691050CF0CBC0A0C028
:100400002A813B812936310509F4EEC08A819B811E
:100410008A3691050CF0F6C0D9C02A813B8123377A
:10042000310509F45FC18A819B81843791052CF5E0
:100430002A813B812F36310509F41CC18A819B81B9
:10044000803791056CF42A813B812D36310509F402
:10045000F5C08A819B818E3691050CF0FDC08CC061
:100460002A813B812137310509F420C18A819B8192
:10047000823791050CF028C10BC12A813B812737B7
:10048000310509F467C18A819B81883791056CF435
:100490002A813B812537310509F440C18A819B813E
:1004A000863791050CF048C12BC12A813B81293741
:1004B000310509F46BC18A819B81893791050CF460
:1004C00057C12A813B812A37310509F46DC171C3B7
:1004D00080918F02882F90E0880F991FFC01ED57C3
:1004E000FC4F87E892E09183808363C380918F0201
:1004F000882F90E0880F991FFC01ED57FC4F83E790
:1005000090E09183808355C380918F02882F90E083
:10051000880F991FFC01ED57FC4F8BE790E091830A
:10052000808347C380918F02882F90E0880F991FA6
:10053000FC01ED57FC4F83E890E09183808339C341
:1005400080918F02882F90E0880F991FFC01ED5752
:10055000FC4F8BE890E0918380832BC380918F02C6
:10056000882F90E0880F991FFC01ED57FC4F83E91D
:1005700090E0918380831DC380918F02882F90E04B
:10058000880F991FFC01ED57FC4F8BEC90E0918395
:1005900080830FC380918F02882F90E0880F991F6E
:1005A000FC01ED57FC4F8BE990E09183808301C300
:1005B00080918F02882F90E0880F991FFC01ED57E2
:1005C000FC4F83EA90E091838083F3C280918F0295
:1005D000882F90E0880F991FFC01ED57FC4F8BEAA4
:1005E00090E091838083E5C280918F02882F90E014
:1005F000880F991FFC01ED57FC4F83EB90E091832E
:100600008083D7C280918F02882F90E0880F991F36
:10061000FC01ED57FC4F8BEB90E091838083C9C2C6
:1006200080918F02882F90E0880F991FFC01ED5771
:10063000FC4F83EC90E091838083BBC280918F025A
:10064000882F90E0880F991FFC01ED57FC4F83ED38
:1006500090E091838083ADC280918F02882F90E0DB
:10066000880F991FFC01ED57FC4F8BED90E09183B3
:1006700080839FC280918F02882F90E0880F991FFE
:10068000FC01ED57FC4F83EE90E09183808391C293
:1006900080918F02882F90E0880F991FFC01ED5701
:1006A000FC4F8BEE90E09183808383C280918F0218
:1006B000882F90E0880F991FFC01ED57FC4F83EFC6
:1006C00090E09183808375C280918F02882F90E0A3
:1006D000880F991FFC01ED57FC4F8BEF90E0918341
:1006E000808367C280918F02882F90E0880F991FC6
:1006F000FC01ED57FC4F83E091E09183808359C268
:1007000080918F02882F90E0880F991FFC01ED5790
:10071000FC4F8BE091E0918380834BC280918F02EC
:10072000882F90E0880F991FFC01ED57FC4F83E163
:1007300091E0918380833DC280918F02882F90E069
:10074000880F991FFC01ED57FC4F8BE191E09183DD
:1007500080832FC280918F02882F90E0880F991F8D
:10076000FC01ED57FC4F83E291E09183808321C22D
:1007700080918F02882F90E0880F991FFC01ED5720
:10078000FC4F8BE291E09183808313C280918F02B2
:10079000882F90E0880F991FFC01ED57FC4F83E3F1
:1007A00091E09183808305C280918F02882F90E031
:1007B000880F991FFC01ED57FC4F8BE391E091836B
:1007C0008083F7C180918F02882F90E0880F991F56
:1007D000FC01ED57FC4F83E491E091838083E9C1F4
:1007E00080918F02882F90E0880F991FFC01ED57B0
:1007F000FC4F8BE491E091838083DBC180918F0279
:10080000882F90E0880F991FFC01ED57FC4F83E57E
:1008100091E091838083CDC180918F02882F90E0F9
:10082000880F991FFC01ED57FC4F8BE591E09183F8
:100830008083BFC180918F02882F90E0880F991F1D
:10084000FC01ED57FC4F83E691E091838083B1C1B9
:1008500080918F02882F90E0880F991FFC01ED573F
:10086000FC4F8BE691E091838083A3C180918F023E
:10087000882F90E0880F991FFC01ED57FC4F83E70C
:1008800091E09183808395C180918F02882F90E0C1
:10089000880F991FFC01ED57FC4F8BE791E0918386
:1008A000808387C180918F02882F90E0880F991FE5
:1008B000FC01ED57FC4F83E891E09183808379C17F
:1008C00080918F02882F90E0880F991FFC01ED57CF
:1008D000FC4F8BE891E0918380836BC180918F0204
:1008E000882F90E0880F991FFC01ED57FC4F83E99A
:1008F00091E0918380835DC180918F02882F90E089
:10090000880F991FFC01ED57FC4F8BE991E0918313
:1009100080834FC180918F02882F90E0880F991FAC
:10092000FC01ED57FC4F83EA91E09183808341C144
:1009300080918F02882F90E0880F991FFC01ED575E
:10094000FC4F8BEA91E09183808333C180918F02C9
:10095000882F90E0880F991FFC01ED57FC4F83EB27
:1009600091E09183808325C180918F02882F90E050
:10097000880F991FFC01ED57FC4F8BEB91E09183A1
:10098000808317C180918F02882F90E0880F991F74
:10099000FC01ED57FC4F83EC91E09183808309C10A
:1009A00080918F02882F90E0880F991FFC01ED57EE
:1009B000FC4F8BEC91E091838083FBC080918F0290
:1009C000882F90E0880F991FFC01ED57FC4F83EDB5
:1009D00091E091838083EDC080918F02882F90E019
:1009E000880F991FFC01ED57FC4F8BED91E091832F
:1009F0008083DFC080918F02882F90E0880F991F3D
:100A0000FC01ED57FC4F83EE91E091838083D1C0D0
:100A100080918F02882F90E0880F991FFC01ED577D
:100A2000FC4F8BEE91E091838083C3C080918F0255
:100A3000882F90E0880F991FFC01ED57FC4F83EF42
:100A400091E091838083B5C080918F02882F90E0E0
:100A5000880F991FFC01ED57FC4F8BEF91E09183BC
:100A60008083A7C080918F02882F90E0880F991F04
:100A7000FC01ED57FC4F83E092E09183808399C0A5
:100A800080918F02882F90E0880F991FFC01ED570D
:100A9000FC4F8BE092E0918380838BC080918F022A
:100AA000882F90E0880F991FFC01ED57FC4F83E1E0
:100AB00092E0918380837DC080918F02882F90E0A7
:100AC000880F991FFC01ED57FC4F8BE192E0918359
:100AD00080836FC080918F02882F90E0880F991FCC
:100AE000FC01ED57FC4F83E292E09183808361C06B
:100AF00080918F02882F90E0880F991FFC01ED579D
:100B0000FC4F8BE292E09183808353C080918F02EF
:100B1000882F90E0880F991FFC01ED57FC4F83E36D
:100B200092E09183808345C080918F02882F90E06E
:100B3000880F991FFC01ED57FC4F8BE392E09183E6
:100B4000808337C080918F02882F90E0880F991F93
:100B5000FC01ED57FC4F83E492E09183808329C030
:100B600080918F02882F90E0880F991FFC01ED572C
:100B7000FC4F8BE492E0918380831BC080918F02B5
:100B8000882F90E0880F991FFC01ED57FC4F83E5FB
:100B900092E0918380830DC080918F02882F90E036
:100BA000880F991FFC01ED57FC4F8BE592E0918374
:100BB000808380918F028F5F80938F020F900F90C0
:100BC0000F90CF91DF910895DF93CF9300D00F92D4
:100BD000CDB7DEB79B838A8319820EC08981282F07
:100BE00030E08A819B81FC01E20FF31F80810E942B
:100BF000CC0089818F5F89838981282F30E08A81A9
:100C00009B81FC01E20FF31F8081882339F70F904D
:100C10000F900F90CF91DF910895DF93CF93CDB7D1
:100C2000DEB780918F02882F90E0880F991FFC011A
:100C3000ED57FC4F8BE690E09183808380918F028B
:100C40008F5F80938F02CF91DF910895DF93CF93D1
:100C5000CDB7DEB780918F02815080938F02809153
:100C60008F02882F90E0880F991FFC01ED57FC4FF1
:100C700011821082CF91DF910895DF93CF930F926D
:100C8000CDB7DEB78983898180939002109291025B
:100C90000F90CF91DF910895DF93CF93CDB7DEB75B
:100CA00010928F02CF91DF910895DF93CF930F922F
:100CB000CDB7DEB71982EAE3F0E08FEF8083E7E398
:100CC000F0E01082E4E3F0E08FEF8083E1E3F0E016
:100CD000108289810F90CF91DF910895DF93CF9398
:100CE00000D00F92CDB7DEB78A836B8319828B81D8
:100CF000813031F08B81882319F084E08983C7C06B
:100D00008A81803218F088E08983C1C08A81883066
:100D100060F58B818823A9F4ABE3B0E0EBE3F0E06E
:100D20008081482F8A81282F30E081E090E0022ED8
:100D300002C0880F991F0A94E2F7809584238C9350
:100D4000A6C0ABE3B0E0EBE3F0E08081482F8A81FE
:100D5000282F30E081E090E0022E02C0880F991F1A
:100D60000A94E2F7842B8C9392C08A81803178F5C3
:100D70008A8188508A838B818823A9F4A8E3B0E014
:100D8000E8E3F0E08081482F8A81282F30E081E07D
:100D900090E0022E02C0880F991F0A94E2F7809516
:100DA00084238C9374C0A8E3B0E0E8E3F0E0808192
:100DB000482F8A81282F30E081E090E0022E02C087
:100DC000880F991F0A94E2F7842B8C9360C08A8164
:100DD000883178F58A8180518A838B818823A9F4B0
:100DE000A5E3B0E0E5E3F0E08081482F8A81282F79
:100DF00030E081E090E0022E02C0880F991F0A9433
:100E0000E2F7809584238C9342C0A5E3B0E0E5E34C
:100E1000F0E08081482F8A81282F30E081E090E047
:100E2000022E02C0880F991F0A94E2F7842B8C933C
:100E30002EC08A8188518A838B818823A9F4A2E3FA
:100E4000B0E0E2E3F0E08081482F8A81282F30E093
:100E500081E090E0022E02C0880F991F0A94E2F709
:100E6000809584238C9313C0A2E3B0E0E2E3F0E02A
:100E70008081482F8A81282F30E081E090E0022E87
:100E800002C0880F991F0A94E2F7842B8C93898102
:100E90000F900F900F90CF91DF910895DF93CF9334
:100EA00000D000D0CDB7DEB78A837C836B831982F4
:100EB0008A81803218F088E0898306C08B819C810A
:100EC000009711F480E189838A818830A0F4E9E3F6
:100ED000F0E08081282F30E08A81882F90E0A901FE
:100EE00002C0559547958A95E2F7CA018170EB815A
:100EF000FC8180834AC08A818031B8F48A8188501D
:100F00008A83E6E3F0E08081282F30E08A81882F11
:100F100090E0A90102C0559547958A95E2F7CA016C
:100F20008170EB81FC81808330C08A818831B8F484
:100F30008A8180518A83E3E3F0E08081282F30E0CA
:100F40008A81882F90E0A90102C0559547958A951E
:100F5000E2F7CA018170EB81FC81808316C08A812F
:100F600088518A83E0E3F0E08081282F30E08A8195
:100F7000882F90E0A90102C0559547958A95E2F720
:100F8000CA018170EB81FC81808389810F900F9071
:100F90000F900F90CF91DF910895DF93CF9300D002
:100FA0000F92CDB7DEB78A836B8319828B81813034
:100FB00031F08B81882319F084E0898305C08A8110
:100FC000803210F088E089838A81883060F58B81D7
:100FD0008823A9F4AAE3B0E0EAE3F0E08081482F97
:100FE0008A81282F30E081E090E0022E02C0880F35
:100FF000991F0A94E2F7809584238C93A6C0AAE3F4
:10100000B0E0EAE3F0E08081482F8A81282F30E0C9
:1010100081E090E0022E02C0880F991F0A94E2F747
:10102000842B8C9392C08A81803178F58A81885094
:101030008A838B818823A9F4A7E3B0E0E7E3F0E09B
:101040008081482F8A81282F30E081E090E0022EB5
:1010500002C0880F991F0A94E2F7809584238C932D
:1010600074C0A7E3B0E0E7E3F0E08081482F8A8115
:10107000282F30E081E090E0022E02C0880F991FF7
:101080000A94E2F7842B8C9360C08A81883178F5CA
:101090008A8180518A838B818823A9F4A4E3B0E0FC
:1010A000E4E3F0E08081482F8A81282F30E081E05E
:1010B00090E0022E02C0880F991F0A94E2F78095F3
:1010C00084238C9342C0A4E3B0E0E4E3F0E08081A9
:1010D000482F8A81282F30E081E090E0022E02C064
:1010E000880F991F0A94E2F7842B8C932EC08A8173
:1010F00088518A838B818823A9F4A1E3B0E0E1E3DE
:10110000F0E08081482F8A81282F30E081E090E054
:10111000022E02C0880F991F0A94E2F7809584235B
:101120008C9313C0A1E3B0E0E1E3F0E08081482FAD
:101130008A81282F30E081E090E0022E02C0880FE3
:10114000991F0A94E2F7842B8C9389810F900F905A
:101150000F90CF91DF910895DF93CF9300D0CDB75B
:10116000DEB78A8319828A81803218F088E0898309
:1011700061C08A818830A0F4ABE3B0E0EBE3F0E03B
:101180008081482F8A81282F30E081E090E0022E74
:1011900002C0880F991F0A94E2F784278C934AC0F3
:1011A0008A818031B8F48A8188508A83A8E3B0E0CC
:1011B000E8E3F0E08081482F8A81282F30E081E049
:1011C00090E0022E02C0880F991F0A94E2F784274C
:1011D0008C9330C08A818831B8F48A8180518A83A7
:1011E000A5E3B0E0E5E3F0E08081482F8A81282F75
:1011F00030E081E090E0022E02C0880F991F0A942F
:10120000E2F784278C9316C08A8188518A83A2E3EF
:10121000B0E0E2E3F0E08081482F8A81282F30E0BF
:1012200081E090E0022E02C0880F991F0A94E2F735
:1012300084278C9389810F900F90CF91DF9108952F
:10124000DF93CF930F92CDB7DEB78983898161E0B9
:101250000E946E060F90CF91DF910895DF93CF9398
:1012600000D000D00F92CDB7DEB79D838C831A8259
:10127000198238C08981882F90E0FC01ED59FD4F1B
:10128000808160E00E94CD078981882F90E0FC0179
:10129000ED59FD4F80810E9420098981882F90E0BF
:1012A000FC01ED59FD4F80819E012D5F3F4FB9013B
:1012B0000E944E07EC81FD818081482F8B81282F71
:1012C00030E08981882F90E0B90102C0660F771F56
:1012D0008A95E2F7CB01842BEC81FD8180838981A3
:1012E0008F5F89838981883028F28A810F900F90DF
:1012F0000F900F900F90CF91DF910895DF93CF93D0
:1013000000D00F92CDB7DEB78B831A82198233C01B
:101310008981882F90E0FC01ED59FD4F808161E0CB
:101320000E94CD078B81282F30E08981882F90E0A3
:10133000A90102C0559547958A95E2F7CA018170C7
:101340009070882359F08981882F90E0FC01ED5935
:10135000FD4F808161E00E946E060AC08981882F5E
:1013600090E0FC01ED59FD4F808160E00E946E0627
:1013700089818F5F89838981883050F28A810F90BB
:101380000F900F90CF91DF910895DF93CF9300D00E
:1013900000D00F92CDB7DEB79D838C831A8219825D
:1013A00038C08981882F90E0FC01E559FD4F80818C
:1013B00060E00E94CD078981882F90E0FC01E5590B
:1013C000FD4F80810E9420098981882F90E0FC01D7
:1013D000E559FD4F80819E012D5F3F4FB9010E946D
:1013E0004E07EC81FD818081482F8B81282F30E0D2
:1013F0008981882F90E0B90102C0660F771F8A9516
:10140000E2F7CB01842BEC81FD81808389818F5FA2
:1014100089838981883028F28A810F900F900F90FC
:101420000F900F90CF91DF910895DF93CF9300D06D
:101430000F92CDB7DEB78B831A82198233C08981B0
:10144000882F90E0FC01E559FD4F808161E00E940A
:10145000CD078B81282F30E08981882F90E0A9016A
:1014600002C0559547958A95E2F7CA018170907040
:10147000882359F08981882F90E0FC01E559FD4FC0
:10148000808161E00E946E060AC08981882F90E009
:10149000FC01E559FD4F808160E00E946E06898164
:1014A0008F5F89838981883050F28A810F900F90F5
:1014B0000F90CF91DF910895DF93CF9300D000D0AC
:1014C0000F92CDB7DEB79D838C83EC81FD811082B6
:1014D0001A821B82198238C08981882F90E0FC0112
:1014E000ED58FD4F808160E00E94CD078981882FF3
:1014F00090E0FC01ED58FD4F80810E942009898118
:10150000882F90E0FC01ED58FD4F80819E012D5FFA
:101510003F4FB9010E944E07EC81FD818081482F29
:101520008B81282F30E08981882F90E0B90102C09B
:10153000660F771F8A95E2F7CB01842BEC81FD8142
:10154000808389818F5F89838981883028F28A81AD
:101550000F900F900F900F900F90CF91DF91089503
:10156000DF93CF9300D00F92CDB7DEB78B831A8273
:10157000198233C08981882F90E0FC01ED58FD4F1E
:10158000808161E00E94CD078B81282F30E0898126
:10159000882F90E0A90102C0559547958A95E2F7FA
:1015A000CA0181709070882359F08981882F90E05A
:1015B000FC01ED58FD4F808161E00E946E060AC07B
:1015C0008981882F90E0FC01ED58FD4F808160E01B
:1015D0000E946E0689818F5F89838981883050F2ED
:1015E0008A810F900F900F90CF91DF910895DF9334
:1015F000CF9300D000D00F92CDB7DEB78A836B8334
:1016000019828B818F3F11F48FEF89838A81282F74
:1016100030E03D832C838C819D8181309105D1F018
:101620002C813D81223031052CF48C819D810097E5
:1016300061F01EC02C813D812230310581F08C810A
:101640009D818330910581F013C0EAE3F0E0898148
:1016500080830EC0E7E3F0E08981808309C0E4E382
:10166000F0E08981808304C0E1E3F0E08981808338
:101670000F900F900F900F900F90CF91DF910895E2
:10168000DF93CF9300D000D0CDB7DEB789836A83D4
:101690008981282F30E03C832B838B819C81813092
:1016A0009105D1F02B813C81223031052CF48B81C6
:1016B0009C81009761F01EC02B813C812230310556
:1016C00081F08B819C818330910581F013C0EBE325
:1016D000F0E08A8180830EC0E8E3F0E08A818083B5
:1016E00009C0E5E3F0E08A81808304C0E2E3F0E032
:1016F0008A8180830F900F900F900F90CF91DF9190
:101700000895DF93CF9300D0CDB7DEB79A83898356
:1017100089819A8190939C0380939B030F900F90F3
:10172000CF91DF910895DF93CF93CDB7DEB7A5E5D5
:10173000B0E0E5E5F0E0808182608C93A5E5B0E063
:10174000E5E5F0E080818E7F8C93AAE5B0E0EAE5E4
:10175000F0E0808180648C93ABE5B0E0EBE5F0E0F5
:10176000808180648C93CF91DF910895DF93CF9334
:1017700000D0CDB7DEB78A8319828A81843079F4AC
:10178000A5E5B0E0E5E5F0E080818D7F8C93A5E5EF
:10179000B0E0E5E5F0E080818E7F8C9346C08A81E1
:1017A000833079F4A5E5B0E0E5E5F0E080818D7F58
:1017B0008C93A5E5B0E0E5E5F0E0808181608C9355
:1017C00034C08A81813079F4A5E5B0E0E5E5F0E048
:1017D000808182608C93A5E5B0E0E5E5F0E0808152
:1017E0008E7F8C9322C08A81823079F4A5E5B0E0A7
:1017F000E5E5F0E0808182608C93A5E5B0E0E5E569
:10180000F0E0808181608C9310C084E08983A5E53D
:10181000B0E0E5E5F0E0808182608C93A5E5B0E082
:10182000E5E5F0E080818E7F8C9389810F900F90A9
:10183000CF91DF910895DF93CF93CDB7DEB7ABE5BE
:10184000B0E0EBE5F0E080818F7B8C93CF91DF916E
:101850000895DF93CF93CDB7DEB7EAE5F0E080815E
:1018600082958695869583708170CF91DF910895DA
:101870001F920F920FB60F9211242F933F934F9305
:101880005F936F937F938F939F93AF93BF93EF93E8
:10189000FF93DF93CF93CDB7DEB7E0919B03F09139
:1018A0009C030995CF91DF91FF91EF91BF91AF918B
:1018B0009F918F917F916F915F914F913F912F9168
:1018C0000F900FBE0F901F901895DF93CF93CDB759
:1018D000DEB7AFE5B0E0EFE5F0E0808180688C93A3
:1018E000CF91DF910895DF93CF93CDB7DEB7AFE50A
:1018F000B0E0EFE5F0E080818F778C93CF91DF91BE
:101900000895DF93CF930F92CDB7DEB7198269C0E8
:101910008981882F90E0880F991FFC01EE56FD4FBA
:1019200080819181009709F459C08981882F90E0C6
:10193000880F991FFC01EE56FD4F0190F081E02DBC
:10194000828193810097D1F58981882F90E0880F5B
:10195000991FFC01EE56FD4F0190F081E02D84812E
:10196000882379F48981882F90E0880F991FFC01E2
:10197000EE56FD4F0190F081E02D0580F681E02DBF
:1019800009958981882F90E0880F991FFC01EE56F8
:10199000FD4FA081B1818981882F90E0880F991F28
:1019A000FC01EE56FD4F0190F081E02D8081918188
:1019B000019713969C938E93129710C08981882F5C
:1019C00090E0880F991FFC01EE56FD4F0190F081C9
:1019D000E02D8281938101979383828389818F5F38
:1019E00089838981843608F493CF0F90CF91DF915A
:1019F0000895DF93CF9300D0CDB7DEB71A820E944F
:101A00008F0F81E89CE063E00E94F20F19821DC0F5
:101A10008981482F50E08981282F30E0C901880F43
:101A2000991F880F991F880F991F821B930B9C0188
:101A300025583D4FCA01880F991FFC01EE56FD4FF6
:101A40003183208389818F5F89838981882301F392
:101A500081E089830DC08981882F90E0880F991FCC
:101A6000FC01EE56FD4F1182108289818F5F8983C0
:101A70008981843680F38A810F900F90CF91DF9116
:101A80000895DF93CF9300D0CDB7DEB78A83198254
:101A90008A81853618F088E089831BC08A81882F67
:101AA00090E0880F991FFC01EE56FD4F80819181D7
:101AB000009719F480E189830CC08A81882F90E017
:101AC000880F991FFC01EE56FD4F0190F081E02D2B
:101AD000148289810F900F90CF91DF910895DF9349
:101AE000CF9300D0CDB7DEB78A8319828A8185363D
:101AF00018F088E089831CC08A81882F90E0880FC5
:101B0000991FFC01EE56FD4F80819181009719F4D9
:101B100080E189830DC08A81882F90E0880F991F0A
:101B2000FC01EE56FD4F0190F081E02D81E08483B1
:101B300089810F900F90CF91DF910895DF93CF931C
:101B400000D000D0CDB7DEB78A837C836B83198247
:101B50008A81853618F088E0898322C08B819C8138
:101B6000009719F480E189831BC08A81882F90E057
:101B7000880F991FFC01EE56FD4F808191810097DF
:101B800019F084E089830CC08A81882F90E0880F47
:101B9000991FFC01EE56FD4F8B819C8191838083C0
:101BA00089810F900F900F900F90CF91DF91089542
:101BB000DF93CF9300D0CDB7DEB78A8319828A81B5
:101BC000853618F088E0898319C08A81882F90E0D3
:101BD000880F991FFC01EE56FD4F8081918100977F
:101BE00019F084E089830AC08A81882F90E0880FE9
:101BF000991FFC01EE56FD4F1182108289810F90D2
:101C00000F90CF91DF910895DF93CF9300D000D054
:101C1000CDB7DEB79B838A8319828A819B810E941C
:101C2000DB0F0F900F900F900F90CF91DF910895E1
:101C3000DF93CF93CDB7DEB7CF91DF910895DF93D8
:101C4000CF93CDB7DEB72E970FB6F894DEBF0FBE99
:101C5000CDBF6B877C878D879E871A86198283E527
:101C600090E09987888782E590E09F838E831B822E
:101C70008CE590E09D838C8381E08A8388E19EE0FF
:101C8000909364038093630388E19EE090936603DE
:101C900080936503E885F98588E08083EC81FD8188
:101CA00088EC80838B859C85AD85BE8528EC30E0F3
:101CB00040E050E0BC01CD010E944C10DA01C901A6
:101CC0009093610380936003A9E5B0E0E9E5F0E05B
:101CD0008081482F8A81282F30E081E090E0022E19
:101CE00002C0880F991F0A94E2F7842B8C93A7E314
:101CF000B0E0E7E3F0E0808188608C93E885F985C7
:101D00008081E885F9858083E885F9858081826016
:101D1000E885F985808378948A852E960FB6F894A5
:101D2000DEBF0FBECDBFCF91DF910895DF93CF937C
:101D300000D00F92CDB7DEB79B838A8319828A8148
:101D40009B81009711F480E189838A819B81909324
:101D500064038093630389810F900F900F90CF915C
:101D6000DF910895DF93CF9300D00F92CDB7DEB708
:101D70009B838A8319828A819B81009711F480E179
:101D800089838A819B81909366038093650389810F
:101D90000F900F900F90CF91DF9108951F920F92A7
:101DA0000FB60F9211242F933F934F935F936F932E
:101DB0007F938F939F93AF93BF93EF93FF93DF93A3
:101DC000CF93CDB7DEB7AFE5B0E0EFE5F0E08081CF
:101DD00080688C9320915A0330915B0380915E035D
:101DE00090915F032817390778F010925B031092E7
:101DF0005A03E2E5F0E0809162038083E09163039F
:101E0000F0916403099509C080915A0390915B0396
:101E1000019690935B0380935A03CF91DF91FF91DA
:101E2000EF91BF91AF919F918F917F916F915F9152
:101E30004F913F912F910F900FBE0F901F901895CB
:101E40001F920F920FB60F9211242F933F934F932F
:101E50005F936F937F938F939F93AF93BF93EF9312
:101E6000FF93DF93CF93CDB7DEB720915C03309122
:101E70005D0380916003909161032817390750F04A
:101E8000E0916503F0916603099510925D0310924D
:101E90005C0309C080915C0390915D03019690936F
:101EA0005D0380935C03CF91DF91FF91EF91BF9130
:101EB000AF919F918F917F916F915F914F913F91E2
:101EC0002F910F900FBE0F901F901895DF93CF9317
:101ED0000F92CDB7DEB7898384E00F90CF91DF9169
:101EE0000895DF93CF930F92CDB7DEB7A3E5B0E0AF
:101EF000E3E5F0E080818E7F8C93A3E5B0E0E3E53D
:101F0000F0E080818D7F8C93A3E5B0E0E3E5F0E025
:101F100080818B7F8C930F90CF91DF910895DF9319
:101F2000CF93CDB7DEB7AFE4B0E0EFE4F0E080816F
:101F30008D7F8C93AFE4B0E0EFE4F0E080818E7FA2
:101F40008C93AEE4B0E0EEE4F0E080818F7E8C9381
:101F5000AEE4B0E0EEE4F0E0808188608C93EDE4E4
:101F6000F0E01082ECE4F0E01082AFE5B0E0EFE5E5
:101F7000F0E0808180688C93A9E5B0E0E9E5F0E0CD
:101F8000808180618C93AEE4B0E0EEE4F0E080818B
:101F90008E7F8C93AEE4B0E0EEE4F0E0808182606E
:101FA0008C93AEE4B0E0EEE4F0E080818E7F8C9321
:101FB000CF91DF910895DF93CF9300D0CDB7DEB7F7
:101FC0009A838983EBE4F0E089819A81892F9927AC
:101FD0008083EAE4F0E0898180830F900F90CF91B5
:101FE000DF910895DF93CF9300D00F92CDB7DEB786
:101FF0009A8389836B838B81882F90E0880F991F48
:10200000FC01ED58FC4F89819A81918380830F9068
:102010000F900F90CF91DF9108951F920F920FB6FE
:102020000F9211242F933F934F935F936F937F935E
:102030008F939F93AF93BF93EF93FF93DF93CF93D0
:10204000CDB7DEB7AFE5B0E0EFE5F0E080818068C6
:102050008C93E0917903F0917A030995CF91DF9108
:10206000FF91EF91BF91AF919F918F917F916F9170
:102070005F914F913F912F910F900FBE0F901F9046
:102080001895DF93CF93CDB7DEB780E690E00E943E
:10209000E4050E946100FFCFA1E21A2EAA1BBB1B20
:1020A000FD010DC0AA1FBB1FEE1FFF1FA217B30724
:1020B000E407F50720F0A21BB30BE40BF50B661F3A
:1020C000771F881F991F1A9469F7609570958095FE
:1020D00090959B01AC01BD01CF010895F894FFCF0D
:1020E0005448414E4B532049544900090F09021EE0
:1020F0004A7848003C4242427C4000007E484830DA
:1021000000000000384444444400000000304848C7
:10211000487E00003C4A4A4A44000000107E1212E9
:1021200012000000004C52527C0000007E10107023
:102130000000000000007A00000000000040403A6B
:10214000000000007E081824420000007E4040404D
:1021500000000000700830087000000008700808D7
:102160007000000018244242241800007E12120C55
:1021700000000000000C12127C000000007E080429
:1021800002000000242A2A2A10000000047E444491
:102190000000000078404078400000001C204020F3
:1021A0001C0000003C403030403C00004428102817
:1021B0004400000000004E48487E00004464544C37
:1021C000440000007C12127C000000007C54542863
:1021D00000000000003F2121210000007E42424219
:1021E0003C0000003E2A2A22000000007E0A0A026B
:1021F000000000003C424252720000003E08083ECF
:102200000000000000427E4200000000000020406C
:10221000403E00007E081824420000007E404040FE
:10222000000000007E0418047E0000003E04081038
:102230003E0000003C4242423C000000FE12120CF4
:10224000000000003C4252225C000000FE123252AC
:102250008C000000008C92929262000002023E020A
:1022600002000000003E4040403E0000001E2040B2
:10227000201E00003E4030403E0000006314081461
:1022800063000000000E10E0100E000000C2A292D9
:102290008A8600007CA2928A7C00000000447E4076
:1022A000000000004462524A4400000022424A56A4
:1022B000220000000C0A097F080000004E4A4A4A2A
:1022C0007A0000007E52527200000000004222128A
:1022D0000A0600007E5A5A7E000000004E4A4A7EDE
:1022E00000000000010203040506070007031214A2
:1022F00011131E0A0B0C0D0E0F1011E80300000045
:022300007F005C
:00000001FF
