:100000000C942A000C9447000C9447000C94470071
:100010000C9447000C9447000C9447000C94470044
:100020000C9447000C9447000C9408070C94BD06F0
:100030000C9447000C9447000C9447000C94470024
:100040000C9447000C9447000C9447000C94470014
:100050000C94470011241FBECFE5D8E0DEBFCDBF12
:1000600010E0A0E6B0E0E2EEFEE002C005900D92E6
:10007000A039B107D9F710E0A0E9B0E001C01D92A6
:10008000A93AB107E1F70E945D070C946F070C9441
:100090000000DF93CF930F92CDB7DEB71982EAE36A
:1000A000F0E08FEF8083E7E3F0E01082E4E3F0E03C
:1000B0008FEF8083E1E3F0E0108289810F90CF9190
:1000C000DF910895DF93CF9300D00F92CDB7DEB7C5
:1000D0008A836B8319828B81813031F08B818823F5
:1000E00019F084E08983C7C08A81803218F088E0E3
:1000F0008983C1C08A81883060F58B818823A9F407
:10010000ABE3B0E0EBE3F0E08081482F8A81282F59
:1001100030E081E090E0022E02C0880F991F0A941F
:10012000E2F7809584238C93A6C0ABE3B0E0EBE3C9
:10013000F0E08081482F8A81282F30E081E090E034
:10014000022E02C0880F991F0A94E2F7842B8C9329
:1001500092C08A81803178F58A8188508A838B8128
:100160008823A9F4A8E3B0E0E8E3F0E08081482F19
:100170008A81282F30E081E090E0022E02C0880FB3
:10018000991F0A94E2F7809584238C9374C0A8E3A6
:10019000B0E0E8E3F0E08081482F8A81282F30E04A
:1001A00081E090E0022E02C0880F991F0A94E2F7C6
:1001B000842B8C9360C08A81883178F58A81805144
:1001C0008A838B818823A9F4A5E3B0E0E5E3F0E01E
:1001D0008081482F8A81282F30E081E090E0022E34
:1001E00002C0880F991F0A94E2F7809584238C93AC
:1001F00042C0A5E3B0E0E5E3F0E08081482F8A81CA
:10020000282F30E081E090E0022E02C0880F991F75
:100210000A94E2F7842B8C932EC08A8188518A83BA
:100220008B818823A9F4A2E3B0E0E2E3F0E08081CF
:10023000482F8A81282F30E081E090E0022E02C012
:10024000880F991F0A94E2F7809584238C9313C03A
:10025000A2E3B0E0E2E3F0E08081482F8A81282F1A
:1002600030E081E090E0022E02C0880F991F0A94CE
:10027000E2F7842B8C9389810F900F900F90CF9190
:10028000DF910895DF93CF9300D000D0CDB7DEB7D4
:100290008A837C836B8319828A81803218F088E09C
:1002A000898306C08B819C81009711F480E189834A
:1002B0008A818830A0F4E9E3F0E08081282F30E0E3
:1002C0008A81882F90E0A90102C0559547958A95AB
:1002D000E2F7CA018170EB81FC8180834AC08A8188
:1002E0008031B8F48A8188508A83E6E3F0E0808127
:1002F000282F30E08A81882F90E0A90102C055950F
:1003000047958A95E2F7CA018170EB81FC81808371
:1003100030C08A818831B8F48A8180518A83E3E3CE
:10032000F0E08081282F30E08A81882F90E0A901B9
:1003300002C0559547958A95E2F7CA018170EB8115
:10034000FC81808316C08A8188518A83E0E3F0E0D3
:100350008081282F30E08A81882F90E0A90102C097
:10036000559547958A95E2F7CA018170EB81FC812A
:10037000808389810F900F900F900F90CF91DF9124
:100380000895DF93CF9300D00F92CDB7DEB78A8365
:100390006B8319828B81813031F08B81882319F036
:1003A00084E0898305C08A81803210F088E08983E7
:1003B0008A81883060F58B818823A9F4AAE3B0E0B4
:1003C000EAE3F0E08081482F8A81282F30E081E045
:1003D00090E0022E02C0880F991F0A94E2F78095E0
:1003E00084238C93A6C0AAE3B0E0EAE3F0E0808126
:1003F000482F8A81282F30E081E090E0022E02C051
:10040000880F991F0A94E2F7842B8C9392C08A81FB
:10041000803178F58A8188508A838B818823A9F47A
:10042000A7E3B0E0E7E3F0E08081482F8A81282F3E
:1004300030E081E090E0022E02C0880F991F0A94FC
:10044000E2F7809584238C9374C0A7E3B0E0E7E3E0
:10045000F0E08081482F8A81282F30E081E090E011
:10046000022E02C0880F991F0A94E2F7842B8C9306
:1004700060C08A81883178F58A8180518A838B8136
:100480008823A9F4A4E3B0E0E4E3F0E08081482FFE
:100490008A81282F30E081E090E0022E02C0880F90
:1004A000991F0A94E2F7809584238C9342C0A4E3B9
:1004B000B0E0E4E3F0E08081482F8A81282F30E02B
:1004C00081E090E0022E02C0880F991F0A94E2F7A3
:1004D000842B8C932EC08A8188518A838B818823B8
:1004E000A9F4A1E3B0E0E1E3F0E08081482F8A8144
:1004F000282F30E081E090E0022E02C0880F991F83
:100500000A94E2F7809584238C9313C0A1E3B0E0B2
:10051000E1E3F0E08081482F8A81282F30E081E0FC
:1005200090E0022E02C0880F991F0A94E2F7842BF4
:100530008C9389810F900F900F90CF91DF91089548
:10054000DF93CF9300D0CDB7DEB78A8319828A813B
:10055000803218F088E0898361C08A818830A0F4F5
:10056000ABE3B0E0EBE3F0E08081482F8A81282FF5
:1005700030E081E090E0022E02C0880F991F0A94BB
:10058000E2F784278C934AC08A818031B8F48A814B
:1005900088508A83A8E3B0E0E8E3F0E08081482F48
:1005A0008A81282F30E081E090E0022E02C0880F7F
:1005B000991F0A94E2F784278C9330C08A8188318E
:1005C000B8F48A8180518A83A5E3B0E0E5E3F0E0E6
:1005D0008081482F8A81282F30E081E090E0022E30
:1005E00002C0880F991F0A94E2F784278C9316C0E3
:1005F0008A8188518A83A2E3B0E0E2E3F0E080815F
:10060000482F8A81282F30E081E090E0022E02C03E
:10061000880F991F0A94E2F784278C9389810F90A1
:100620000F90CF91DF910895DF93CF930F92CDB7C5
:10063000DEB78983898161E00E9462000F90CF91CB
:10064000DF910895DF93CF9300D000D00F92CDB704
:10065000DEB79D838C831A82198238C08981882FE6
:1006600090E0FC01E05AFF4F808160E00E94C101F0
:100670008981882F90E0FC01E05AFF4F80810E9421
:1006800014038981882F90E0FC01E05AFF4F80819C
:100690009E012D5F3F4FB9010E944201EC81FD8117
:1006A0008081482F8B81282F30E08981882F90E02E
:1006B000B90102C0660F771F8A95E2F7CB01842B40
:1006C000EC81FD81808389818F5F89838981883076
:1006D00028F28A810F900F900F900F900F90CF917A
:1006E000DF910895DF93CF9300D00F92CDB7DEB79F
:1006F0008B831A82198233C08981882F90E0FC0194
:10070000E05AFF4F808161E00E94C1018B81282F58
:1007100030E08981882F90E0A90102C05595479566
:100720008A95E2F7CA0181709070882359F0898117
:10073000882F90E0FC01E05AFF4F808161E00E9429
:1007400062000AC08981882F90E0FC01E05AFF4FC7
:10075000808160E00E94620089818F5F8983898146
:10076000883050F28A810F900F900F90CF91DF91D7
:100770000895DF93CF9300D000D00F92CDB7DEB7AE
:100780009D838C831A82198238C08981882F90E0DA
:10079000FC01E859FF4F808160E00E94C10189811E
:1007A000882F90E0FC01E859FF4F80810E941403DC
:1007B0008981882F90E0FC01E859FF4F80819E01DC
:1007C0002D5F3F4FB9010E944201EC81FD81808184
:1007D000482F8B81282F30E08981882F90E0B90144
:1007E00002C0660F771F8A95E2F7CB01842BEC815C
:1007F000FD81808389818F5F89838981883028F298
:100800008A810F900F900F900F900F90CF91DF91F2
:100810000895DF93CF9300D00F92CDB7DEB78B83CF
:100820001A82198233C08981882F90E0FC01E8592F
:10083000FF4F808161E00E94C1018B81282F30E051
:100840008981882F90E0A90102C0559547958A9526
:10085000E2F7CA0181709070882359F08981882F4E
:1008600090E0FC01E859FF4F808161E00E94620046
:100870000AC08981882F90E0FC01E859FF4F8081F0
:1008800060E00E94620089818F5F8983898188305E
:1008900050F28A810F900F900F90CF91DF910895C1
:1008A000DF93CF9300D000D00F92CDB7DEB79D83FA
:1008B0008C83EC81FD8110821A821B82198238C0E0
:1008C0008981882F90E0FC01E059FF4F808160E032
:1008D0000E94C1018981882F90E0FC01E059FF4FFF
:1008E00080810E9414038981882F90E0FC01E059E7
:1008F000FF4F80819E012D5F3F4FB9010E94420151
:10090000EC81FD818081482F8B81282F30E0898107
:10091000882F90E0B90102C0660F771F8A95E2F731
:10092000CB01842BEC81FD81808389818F5F89835A
:100930008981883028F28A810F900F900F900F9054
:100940000F90CF91DF910895DF93CF9300D00F9256
:10095000CDB7DEB78B831A82198233C08981882F85
:1009600090E0FC01E059FF4F808161E00E94C101ED
:100970008B81282F30E08981882F90E0A90102C067
:10098000559547958A95E2F7CA0181709070882342
:1009900059F08981882F90E0FC01E059FF4F808158
:1009A00061E00E9462000AC08981882F90E0FC010A
:1009B000E059FF4F808160E00E94620089818F5F73
:1009C00089838981883050F28A810F900F900F902F
:1009D000CF91DF910895DF93CF9300D000D00F9295
:1009E000CDB7DEB78A836B8319828B818F3F11F479
:1009F0008FEF89838A81282F30E03D832C838C817F
:100A00009D8181309105D1F02C813D8122303105CD
:100A10002CF48C819D81009761F01EC02C813D815A
:100A20002230310581F08C819D818330910581F0E8
:100A300013C0EAE3F0E0898180830EC0E7E3F0E0D1
:100A40008981808309C0E4E3F0E08981808304C068
:100A5000E1E3F0E0898180830F900F900F900F9079
:100A60000F90CF91DF910895DF93CF9300D000D006
:100A7000CDB7DEB789836A838981282F30E03C8334
:100A80002B838B819C8181309105D1F02B813C811E
:100A9000223031052CF48B819C81009761F01EC0BF
:100AA0002B813C812230310581F08B819C81833008
:100AB000910581F013C0EBE3F0E08A8180830EC0E2
:100AC000E8E3F0E08A81808309C0E5E3F0E08A8111
:100AD000808304C0E2E3F0E08A8180830F900F906E
:100AE0000F900F90CF91DF910895DF93CF9300D0B7
:100AF000CDB7DEB71A8284E0898316C08981882F3A
:100B000090E0FC01E857FF4F808160E00E94C10146
:100B10008981882F90E0FC01E857FF4F80810E9477
:100B2000140389818F5F89838981883038F38A81B2
:100B30000F900F90CF91DF910895DF93CF93CDB7B2
:100B4000DEB728970FB6F894DEBF0FBECDBF9887EB
:100B50008F8381E08D831C8217C08C81882F90E069
:100B6000FC01E857FF4F808161E00E94C1018C8148
:100B7000882F90E0FC01E857FF4F808161E00E94E0
:100B800062008C818F5F8C838C81843030F31B8278
:100B900054C08B81882F90E0FC01E857FF4F808183
:100BA00060E00E9462001A8235C019828A81882F13
:100BB00090E00496FC01E857FF4F80819E012A5F78
:100BC0003F4FB9010E9442018E81882331F489810F
:100BD0008F5F89838981882349F789818823B9F0C8
:100BE0008B81482F50E08A81282F30E0CA01880F7E
:100BF000991F880F991F820F931FFC01E858FF4F20
:100C00008081EF81F885808382E08D8306C08A81B0
:100C10008F5F8A838A81843040F28D81823089F0AF
:100C20008B81882F90E0FC01E857FF4F808161E0C5
:100C30000E9462008B818F5F8B838B81843008F4EC
:100C4000A8CF8D8128960FB6F894DEBF0FBECDBF1A
:100C5000CF91DF910895DF93CF93CDB7DEB7CF91DA
:100C6000DF910895DF93CF93CDB7DEB72E970FB600
:100C7000F894DEBF0FBECDBF6B877C878D879E87C4
:100C80001A86198283E590E09987888782E590E04B
:100C90009F838E831B828CE590E09D838C8381E013
:100CA0008A838BE296E090939A00809399008BE27E
:100CB00096E090939C0080939B00E885F98588E4FA
:100CC0008083EC81FD8184E68083A7E3B0E0E7E3E5
:100CD000F0E0808188608C93E885F985808180626E
:100CE000E885F9858083E885F98580818160E885DC
:100CF000F985808378948A852E960FB6F894DEBFA6
:100D00000FBECDBFCF91DF910895DF93CF9300D079
:100D10000F92CDB7DEB79B838A8319828A819B812C
:100D2000009711F480E189838A819B8190939A00D6
:100D30008093990089810F900F900F90CF91DF9150
:100D40000895DF93CF9300D00F92CDB7DEB79B838A
:100D50008A8319828A819B81009711F480E18983BB
:100D60008A819B8190939C0080939B0089810F9046
:100D70000F900F90CF91DF9108951F920F920FB6B1
:100D80000F9211242F933F934F935F936F937F9311
:100D90008F939F93AF93BF93EF93FF93DF93CF9383
:100DA000CDB7DEB7209190003091910080919400F2
:100DB000909195002817390778F0109291001092C1
:100DC0009000E2E5F0E0809198008083E091990046
:100DD000F0919A00099509C080919000909191003E
:100DE00001969093910080939000CF91DF91FF91B5
:100DF000EF91BF91AF919F918F917F916F915F9193
:100E00004F913F912F910F900FBE0F901F9018950B
:100E10001F920F920FB60F9211242F933F934F936F
:100E20005F936F937F938F939F93AF93BF93EF9352
:100E3000FF93DF93CF93CDB7DEB72091920030912F
:100E4000930080919600909197002817390750F0F1
:100E5000E0919B00F0919C000995109293001092F4
:100E6000920009C080919200909193000196909316
:100E7000930080939200CF91DF91FF91EF91BF910A
:100E8000AF919F918F917F916F915F914F913F9122
:100E90002F910F900FBE0F901F901895DF93CF9357
:100EA0000F92CDB7DEB78983ECE5F0E089818083CE
:100EB00080E00F90CF91DF910895DF93CF930F9251
:100EC000CDB7DEB760E472E48FE090E00E943206B6
:100ED0000E947505198288EC0E944E07FBCFF8949A
:020EE000FFCF42
:100EE200000703121411131E000703121411131E1C
:100EF2000A0B0C0D0E0F10113132334134353642CC
:100F0200373839432A3023441C1D1E1F1B1A191857
:00000001FF
