:100000000C942A000C943F000C943F000C943F0089
:100010000C943F000C943F000C943F000C943F0064
:100020000C943F000C943F000C943F000C943F0054
:100030000C943F000C943F000C943F000C943F0044
:100040000C943F000C943F000C943F000C943F0034
:100050000C943F0011241FBECFE5D8E0DEBFCDBF1A
:1000600010E0A0E6B0E0E4EDF0E002C005900D92F3
:10007000AA36B107D9F70E9441000C9468000C948D
:100080000000DF93CF93CDB7DEB72A970FB6F89471
:10009000DEBF0FBECDBFDE011196E0E6F0E08AE0E4
:1000A00001900D928150E1F78FEF8ABB20E030E0A4
:1000B000AE014F5F5F4FFA01E20FF31F80818BBBF0
:1000C0002F5F3F4F2A303105B4F320E030E0F3CF0B
:0400D000F894FFCFD2
:0A00D400C0F9A4B0999282F8809060
:00000001FF
